:020000040000fa
:080000000001040000000000f3
:020000040000fa
:04000800de01000015
:020000040000fa
:04000c00de01000011
:020000040000fa
:04001000de0100000d
:020000040000fa
:04001400de01000009
:020000040000fa
:04001800de01000005
:020000040000fa
:04001c00de01000001
:020000040000fa
:04002000de010000fd
:020000040000fa
:04002400de010000f9
:020000040000fa
:04002800de010000f5
:020000040000fa
:04002c00de010000f1
:020000040000fa
:04003000de010000ed
:020000040000fa
:04003400de010000e9
:020000040000fa
:04003800de010000e5
:020000040000fa
:04003c00de010000e1
:020000040000fa
:04004000de010000dd
:020000040000fa
:04004400de010000d9
:020000040000fa
:04004800de010000d5
:020000040000fa
:04004c00de010000d1
:020000040000fa
:04005000de010000cd
:020000040000fa
:04005400de010000c9
:020000040000fa
:04005800de010000c5
:020000040000fa
:04005c00de010000c1
:020000040000fa
:04006000de010000bd
:020000040000fa
:04006400de010000b9
:020000040000fa
:04006800de010000b5
:020000040000fa
:04006c00de010000b1
:020000040000fa
:04007000de010000ad
:020000040000fa
:04007400de010000a9
:020000040000fa
:04007800de010000a5
:020000040000fa
:04007c00de010000a1
:020000040000fa
:04008000de0100009d
:020000040000fa
:04008400de01000099
:020000040000fa
:04008800c8010000ab
:020000040000fa
:04008c00de01000091
:020000040000fa
:04009000de0100008d
:020000040000fa
:04009400de01000089
:020000040000fa
:04009800de01000085
:020000040000fa
:04009c00de01000081
:020000040000fa
:0400a000de0100007d
:020000040000fa
:0400a400de01000079
:020000040000fa
:0400a800de01000075
:020000040000fa
:0400ac00de01000071
:020000040000fa
:0400b000de0100006d
:020000040000fa
:0400b400de01000069
:020000040000fa
:0400b800de01000065
:020000040000fa
:0400bc00de01000061
:020000040000fa
:0400c000de0100005d
:020000040000fa
:0400c400de01000059
:020000040000fa
:0400c800de01000055
:020000040000fa
:0400cc00de01000051
:020000040000fa
:0400d000de0100004d
:020000040000fa
:0400d400de01000049
:020000040000fa
:0400d800de01000045
:020000040000fa
:04010800de01000014
:020000040000fa
:04010c00de01000010
:020000040000fa
:04011000de0100000c
:020000040000fa
:04011400de01000008
:020000040000fa
:04011800de01000004
:020000040000fa
:04011c00de01000000
:020000040000fa
:04012000de010000fc
:020000040000fa
:04012400de010000f8
:020000040000fa
:04012800de010000f4
:020000040000fa
:04012c00de010000f0
:020000040000fa
:04013000de010000ec
:020000040000fa
:04013400de010000e8
:020000040000fa
:04013800de010000e4
:020000040000fa
:04013c00de010000e0
:020000040000fa
:04014000de010000dc
:020000040000fa
:04014400de010000d8
:020000040000fa
:04014800de010000d4
:020000040000fa
:04014c00de010000d0
:020000040000fa
:04015000de010000cc
:020000040000fa
:04015400de010000c8
:020000040000fa
:04015800de010000c4
:020000040000fa
:04015c00de010000c0
:020000040000fa
:04016000de010000bc
:020000040000fa
:04016400de010000b8
:020000040000fa
:04016800de010000b4
:020000040000fa
:04016c00de010000b0
:020000040000fa
:04017000de010000ac
:020000040000fa
:04017400de010000a8
:020000040000fa
:04017800de010000a4
:020000040000fa
:04017c00de010000a0
:020000040000fa
:04018000de0100009c
:020000040000fa
:04018400de01000098
:020000040000fa
:04018800c8010000aa
:020000040000fa
:04018c00de01000090
:020000040000fa
:04019000de0100008c
:020000040000fa
:04019400de01000088
:020000040000fa
:04019800de01000084
:020000040000fa
:04019c00de01000080
:020000040000fa
:0401a000de0100007c
:020000040000fa
:0401a400de01000078
:020000040000fa
:0401a800de01000074
:020000040000fa
:0401ac00de01000070
:020000040000fa
:0401b000de0100006c
:020000040000fa
:0401b400de01000068
:020000040000fa
:0401b800de01000064
:020000040000fa
:0401bc00de01000060
:020000040000fa
:0401c000de0100005c
:020000040000fa
:0401c400de01000058
:020000040000fa
:0401c800de01000054
:020000040000fa
:0401cc00de01000050
:020000040000fa
:0401d000de0100004c
:020000040000fa
:0401d400de01000048
:020000040000fa
:0401d800de01000044
:020000040000fa
:100200000f8020000eff20000e018800000000007b
:10021000000020000000e000020032000001200089
:100220002002880014000700660007000000e000bc
:1002300003003a0000002000010020000200370007
:100240000000200001002000810f7000010032003a
:1002500014000700000020000000e000020032004f
:100260000000020000000000a004020000000000e6
:100270000040da000000fe004440a9000002200017
:100280000000e0000300320000002000a001880010
:100290004440a800000006008a1f78008b1f7800e9
:1002a0000000060091018800800478000000eb0047
:1002b0001a003700e284440032a0b4009905ba0065
:1002c000e284440032a0b4009906ba00e2844400fb
:1002d00032a0b4000006eb00476fde00fd07b2005d
:1002e000636ce10003003a00ebff07000000eb0045
:1002f0000a003700606ce10004003a00005deb008a
:100300008b05e900fdff3e00040037006168e10055
:10031000010032000086eb000b00070019c7ba008d
:100320001905ba000e04e00003003a000a00e000dc
:10033000e0ff3a0000000600fe07b2009e018800c0
:100340008a047800f5ff3700395dba008b05e900b3
:100350000c003200295dba008b05e900080032006c
:100360000c00e00003003a00e284440032a0b40034
:10037000f5ff370019ddba008b05e900faff3a00f6
:100380008904e800e184440032a0b40000000600c3
:100390003400f800881f780008002000a8018800b9
:1003a0004f0478000000fa008700a9001822a90075
:1003b0000080fa003400f900004006000040da0036
:1003c0000000fe0000000500889fbe008a9fbe005e
:1003d0008c1f7800970007009e00330003866c0096
:1003e0006450e1002e0032006420e100330032004e
:1003f0006150e1002f0032006120e1003100320045
:1004000085855500eb07b000090020000804200096
:10041000050037000804440089844c000a003100bc
:100420000603430087834b000001530081815b007a
:10043000f8ff33000203be000800a00008044400d7
:1004400089844c00f6ff3900c639dd008301730052
:1004500001003200130020008904d1000884d30079
:100460000998a300050032000800a7000300a000bf
:100470008904d1000884d3008b05e8008904d100e9
:100480000884d3000001eb000281d2002e00070097
:1004900001f0a1000cf0a70001f0a00076003700e9
:1004a0006420e100780032000801be000200be00b6
:1004b000f7ff37006120e100730032006000b800f0
:1004c000f3ff37000000200001f82700f0ff37009d
:1004d0000001be00420007000470a70003f0a10065
:1004e00003f8a30013003a006509b10010003200c0
:1004f000090035006928e1000200350001002800ec
:100500000000050000004000818048008502e900ed
:10051000fcff3a0000000600f88f4200050035009d
:100520008100d1000080d3008502e800fcff3a0082
:10053000000006008000eb00000005004f89de008f
:10054000820178008700370081002000618055001b
:100550000b003d000b00200061fe2f000100e100b8
:100560001d00340082817100610164008904d100a2
:100570000884d3000000e800faff3a007100200070
:100580006100640003007000020060000900320096
:1005900061044400e0844c000988a5000500320095
:1005a0008b05e8006808e10002003a008904d100e8
:1005b0000884d300f20f20000258e10005003d003e
:1005c000c75ddd00f907b20089807500080078007a
:1005d000000006000bf827008b00780000000500e3
:1005e000c70ade00f107b200f50fb20008003200c2
:1005f000e1cf4200020032000170a000240005009b
:10060000810f70000100320004080500440005005d
:10061000810f700002003a00140005008502e90015
:100620000000400081c04800fcff3b000170a000ba
:10063000240005000004be00e9ff07000003be001f
:100640000405be000200be00e5ff0700844f7500f0
:10065000000006000200be006450e1000500360004
:100660006420e100020036000968a30001003a009e
:100670000800be000160a0004f0678004f05be00d4
:100680004f04be0000000600f0ff2f00f1ff27001e
:10069000f9ff3700889fbe008a9fbe008c1f78003c
:1006a000e4ff0700ebff330003866c006450e100b9
:1006b000240032006420e100270032006150e10094
:1006c000220032006120e100210032008b854200cf
:1006d000eb07b1000134b800003ab800080442004a
:1006e00089844a00013ab8000030b8008880400090
:1006f00009014a00040033000000400081804800e6
:10070000020149008b05e900c909dd008301700081
:100710000100320013002000c814de004814dd0080
:100720004709de001200b200c808de00088470002d
:1007300085ff070001f0a1000cf0a70001f0a00068
:10074000cdff37006120e100cfff32000801be007d
:100750000200be00f7ff37006150e100fcff3a00e5
:10076000c9ff3700881f7800030478000300e00009
:1007700007003d0060001000e080180060011900d3
:10078000e081190002003b0001f02d00030037005a
:100790000400070008f0a70001f0a0004f04780053
:1007a00000000600889fbe008a9fbe000082700085
:1007b0000402710004827100260032000004be00b1
:1007c0000200be006011b8006b09200095022000f5
:1007d0000182cf000a0039000541b1000082cf003c
:1007e000070039000541b1000982cf00040039003b
:1007f0000541b1000882cf00010039000541b10078
:1008000005425200120032000a003b008281710052
:10081000610164008100d1000080d3008984d3008d
:100820000884d3008b05e8000442e800f7ff3a0093
:10083000070037000804440089844c000000480089
:10084000818048008b05e9000442e900f9ff3a0085
:100850003dff07004f05be004f04be00000006002c
:020000040000fa
:100860008000000081000000820000008300000082
:100870008400000085000000860000008700000062
:1008800088000000890000008a0000008b00000042
:100890008c0000008d0000008e0000008f00000022
:020000040000fa
:1008a0000000fa00b0002000f010880017e2a80055
:1008b0001942a800c1108000000c20000100700047
:1008c000c01088008f00a8000080fa000000060019
:1008d0000200fa0000c8b300390107000000eb0075
:1008e000000f78000300370000c2b3003401070096
:1008f0001e0fe8001e007800ef0f5000faff3400d2
:100900000080fa00000006000200fa0000ccb300ec
:100910002b0107000000eb00000f780003003700f8
:1009200000c2b300260107001e0fe8001e00780079
:10093000ef0f5000faff34000080fa0000000600bc
:100940004000fa0000c2b300004f78000000eb0046
:10095000100798000000eb0020079800010220001b
:1009600081004700024328000f000900b2187800f8
:10097000d902a800d202a800d01680004800de00ec
:10098000614060000080fb0030079800d0168000b6
:100990004800de00614060000080fb0040079800d6
:1009a000813e2000100020005d000700f6000700d7
:1009b000c7ff0700baff0700d01680004800de001e
:1009c000614060000080fb0050079800d016800056
:1009d0004800de00614060000080fb006007980076
:1009e0005e0090000000e0000b003a003e00900026
:1009f000e10f500008003a0000000000c110800024
:100a000000202000008060000000e000fbff3a00b2
:100a10002e009000d01088006e0090000000e000d2
:100a200037003a004e009000e10f500036003a00c7
:100a3000b5ff070000c8b300e10007000000eb00ad
:100a40002007980031003700e0108000604f9800c8
:100a5000ee489000e0c6b30080cf500004003200a2
:100a6000ee48900020c7b30080cf500008003a0045
:100a7000c0c5b3009e40780080cf500004003a000b
:100a800093ff07000000eb00100798001f003700dd
:100a90001e009000ef0f500004003a0000c8b300a1
:100aa000c70007000000eb00100798001e00900030
:100ab0000000400000004700001090000040780057
:100ac000bf0007006e489000bd0007002e00900098
:100ad0000000e80020079800ee489000014f7800e1
:100ae0001e0090000000e800100798005e019000d2
:100af00032079800ee00900041079800030037008d
:100b0000000000000100370000000000c01080005d
:100b1000610060000000e000cbff3a00a6ff370054
:100b20000800fa0020079800310798003e00900066
:100b3000cf80de0081fe070002002000a3472400d2
:100b400021fe0700008fbe002e009000e10f500034
:100b500003003200e20f50001b0032003500370066
:100b600005e1a9000021ef000421a900210880006f
:100b7000000320000100700020088800020020000f
:100b8000139e24001e00be00c2fe070002002000cb
:100b9000033824000cfe07004dfe0700000078001b
:100ba0001008880005e1a800000000002004800073
:100bb000680060000000e000fcff32008460a900d3
:100bc00005e1a9001b00370011e1a9000621ef0093
:100bd0001021a9008108800000032000010070009e
:100be0008008880002002000139e24001e00be0022
:100bf000a8fe07000200200003382400f2fd0700d1
:100c000033fe0700000078006008880011e1a800aa
:100c1000000000002104800000042000008060002b
:100c20000000e000fbff320084c0a90011e1a90030
:100c3000000000000080fa00000006000800fa0032
:100c400020079800310798003e009000cf80de001a
:100c50003afe070002002000a3472400dafd070047
:100c6000008fbe002e009000e10f50000300320004
:100c7000e20f5000150032002800370005e1a900fe
:100c80000021ef000421a90021088000f0fc2f00c2
:100c9000008060000050a0002008880002002000b2
:100ca000139e24001e00be007afe070002002000f2
:100cb00003282400c4fd070005fe0700000078009b
:100cc0001008880005e1a8001400370011e1a90010
:100cd0000621ef000421a90081088000f0fc2f000c
:100ce000008060000050a000800888000200200002
:100cf000139e24001e00be0066fe070002002000b6
:100d000003282400b0fd0700f1fd07000000780073
:100d10006008880011e1a800000000000080fa00cf
:100d2000000006000200fa00000f78001e007800a4
:100d3000e10f500003003200e20f500008003200c3
:100d40000f003700000000002004800068006000f1
:100d50000000e000fcff32008460a90008003700ba
:100d600000000000210480000004200000806000da
:100d70000000e000fbff320084c0a900000000007a
:100d80000080fa00000006000000fa0022a2a8007d
:100d90002342a900101180003000b3001011880018
:100da0001111800030fe2f00008060008001b30030
:100db0001011880021e2a8000080fa00000006005f
:100dc0000200fa00004f78000000000000118000cf
:100dd000620060000000e000fcff3a001e00fb0023
:100de000201188000080fa00000006000400fa00cc
:100df000100798000000eb00000f78000c0037008f
:100e00000000000000118000620060000000e000af
:100e1000fcff3a001e0078009e0090000080400019
:100e2000104078000000fb00201188001e0fe80031
:100e30001e0078009e009000008040001040780066
:100e40000004e000eeff3a000080fa000000060017
:00000001FF
