:020000040000fa
:080000000001040000000000f3
:020000040000fa
:0400080028020000ca
:020000040000fa
:04000c0028020000c6
:020000040000fa
:0400100028020000c2
:020000040000fa
:0400140028020000be
:020000040000fa
:0400180028020000ba
:020000040000fa
:04001c0028020000b6
:020000040000fa
:0400200028020000b2
:020000040000fa
:0400240028020000ae
:020000040000fa
:04002800c80100000b
:020000040000fa
:04002c0028020000a6
:020000040000fa
:0400300028020000a2
:020000040000fa
:04003400280200009e
:020000040000fa
:04003800280200009a
:020000040000fa
:04003c002802000096
:020000040000fa
:040040002802000092
:020000040000fa
:04004400280200008e
:020000040000fa
:04004800280200008a
:020000040000fa
:04004c002802000086
:020000040000fa
:040050002802000082
:020000040000fa
:04005400280200007e
:020000040000fa
:04005800280200007a
:020000040000fa
:04005c002802000076
:020000040000fa
:040060002802000072
:020000040000fa
:04006400280200006e
:020000040000fa
:04006800280200006a
:020000040000fa
:04006c002802000066
:020000040000fa
:040070002802000062
:020000040000fa
:04007400280200005e
:020000040000fa
:04007800280200005a
:020000040000fa
:04007c002802000056
:020000040000fa
:040080002802000052
:020000040000fa
:04008400f80100007f
:020000040000fa
:04008800280200004a
:020000040000fa
:04008c002802000046
:020000040000fa
:040090002802000042
:020000040000fa
:04009400280200003e
:020000040000fa
:04009800280200003a
:020000040000fa
:04009c002802000036
:020000040000fa
:0400a0002802000032
:020000040000fa
:0400a400280200002e
:020000040000fa
:0400a800280200002a
:020000040000fa
:0400ac002802000026
:020000040000fa
:0400b0002802000022
:020000040000fa
:0400b400280200001e
:020000040000fa
:0400b800280200001a
:020000040000fa
:0400bc002802000016
:020000040000fa
:0400c0002802000012
:020000040000fa
:0400c400280200000e
:020000040000fa
:0400c800280200000a
:020000040000fa
:0400cc002802000006
:020000040000fa
:0400d0002802000002
:020000040000fa
:0400d40028020000fe
:020000040000fa
:0400d80028020000fa
:020000040000fa
:0401080028020000c9
:020000040000fa
:04010c0028020000c5
:020000040000fa
:0401100028020000c1
:020000040000fa
:0401140028020000bd
:020000040000fa
:0401180028020000b9
:020000040000fa
:04011c0028020000b5
:020000040000fa
:0401200028020000b1
:020000040000fa
:0401240028020000ad
:020000040000fa
:04012800c80100000a
:020000040000fa
:04012c0028020000a5
:020000040000fa
:0401300028020000a1
:020000040000fa
:04013400280200009d
:020000040000fa
:040138002802000099
:020000040000fa
:04013c002802000095
:020000040000fa
:040140002802000091
:020000040000fa
:04014400280200008d
:020000040000fa
:040148002802000089
:020000040000fa
:04014c002802000085
:020000040000fa
:040150002802000081
:020000040000fa
:04015400280200007d
:020000040000fa
:040158002802000079
:020000040000fa
:04015c002802000075
:020000040000fa
:040160002802000071
:020000040000fa
:04016400280200006d
:020000040000fa
:040168002802000069
:020000040000fa
:04016c002802000065
:020000040000fa
:040170002802000061
:020000040000fa
:04017400280200005d
:020000040000fa
:040178002802000059
:020000040000fa
:04017c002802000055
:020000040000fa
:040180002802000051
:020000040000fa
:04018400f80100007e
:020000040000fa
:040188002802000049
:020000040000fa
:04018c002802000045
:020000040000fa
:040190002802000041
:020000040000fa
:04019400280200003d
:020000040000fa
:040198002802000039
:020000040000fa
:04019c002802000035
:020000040000fa
:0401a0002802000031
:020000040000fa
:0401a400280200002d
:020000040000fa
:0401a8002802000029
:020000040000fa
:0401ac002802000025
:020000040000fa
:0401b0002802000021
:020000040000fa
:0401b400280200001d
:020000040000fa
:0401b8002802000019
:020000040000fa
:0401bc002802000015
:020000040000fa
:0401c0002802000011
:020000040000fa
:0401c400280200000d
:020000040000fa
:0401c8002802000009
:020000040000fa
:0401cc002802000005
:020000040000fa
:0401d0002802000001
:020000040000fa
:0401d40028020000fd
:020000040000fa
:0401d80028020000f9
:020000040000fa
:100200000f8020000eff20000e018800000000007b
:10021000000020000000e000020032000001200089
:1002200020028800140007008b0007000000e00097
:1002300003003a0000002000010020000200370007
:100240000000200001002000810f7000010032003a
:1002500014000700000020000000e000020032004f
:10026000000002000000000046060200000000003e
:100270000040da000000fe004440a9000000200019
:100280000000e0000300320000002000a001880010
:100290004440a800000006008a1f78008b1f7800e9
:1002a0000000060091018800800478000000eb0047
:1002b0001a003700e284440032a0b4009905ba0065
:1002c000e284440032a0b4009906ba00e2844400fb
:1002d00032a0b4000006eb00476fde00fd07b2005d
:1002e000636ce10003003a00ebff07000000eb0045
:1002f0000a003700606ce10004003a00005deb008a
:100300008b05e900fdff3e00040037006168e10055
:10031000010032000086eb000b00070019c7ba008d
:100320001905ba000e04e00003003a000a00e000dc
:10033000e0ff3a0000000600fe07b2009e018800c0
:100340008a047800f5ff3700395dba008b05e900b3
:100350000c003200295dba008b05e900080032006c
:100360000c00e00003003a00e284440032a0b40034
:10037000f5ff370019ddba008b05e900faff3a00f6
:100380008904e800e184440032a0b40000000600c3
:10039000809fbe003400f80000002000a00188000b
:1003a0000000fa008400a90050168000620060007e
:1003b00000f0a7000000ea000000e9004f00de00a6
:1003c000004078000080fb006100600000004000f9
:1003d000511680000110a100010070005016880025
:1003e0000080fa003400f9004f00be000040060013
:1003f000809fbe003400f80000002000a0018800ab
:100400000000fa0084c0a90050168000620060005d
:1004100000f0a7000000ea000000e9004f00de0045
:10042000004078000080fb00610060000000400098
:10043000511680000110a1000100700050168800c4
:100440000080fa003400f9004f00be0000400600b2
:100450000040da000000fe0000000500889fbe009a
:100460008a9fbe008c1f7800970007009e00330013
:1004700003866c006450e1002e0032006420e1002d
:10048000330032006150e1002f0032006120e100b2
:100490003100320085855500eb07b00009002000cf
:1004a00008042000050037000804440089844c003b
:1004b0000a0031000603430087834b00000153000c
:1004c00081815b00f8ff33000203be000800a0003a
:1004d0000804440089844c00f6ff3900c639dd0069
:1004e0008301730001003200130020008904d10051
:1004f0000884d3000998a300050032000800a70073
:100500000300a0008904d1000884d3008b05e80013
:100510008904d1000884d3000001eb000281d200dd
:100520002e00070001f0a1000cf0a70001f0a000d0
:10053000760037006420e100780032000801be0038
:100540000200be00f7ff37006120e10073003200b7
:100550006000b800f3ff37000000200001f827001a
:10056000f0ff37000001be00420007000470a70042
:1005700003f0a10003f8a30013003a006509b100dd
:1005800010003200090035006928e1000200350042
:1005900001002800000005000000400081804800a4
:1005a0008502e900fcff3a0000000600f88f4200d7
:1005b000050035008100d1000080d3008502e800ed
:1005c000fcff3a00000006008000eb000000050080
:1005d0004f89de008201780087003700810020000b
:1005e000618055000b003d000b00200061fe2f00d4
:1005f0000100e1001d00340082817100610164008e
:100600008904d1000884d3000000e800faff3a0012
:1006100071002000610064000300700002006000af
:100620000900320061044400e0844c000988a50000
:10063000050032008b05e8006808e10002003a007e
:100640008904d1000884d300f20f20000258e10091
:1006500005003d00c75ddd00f907b2008980750027
:1006600008007800000006000bf827008b007800d7
:1006700000000500c70ade00f107b200f50fb20066
:1006800008003200e1cf4200020032000170a000f9
:1006900024000500810f70000100320004080500ed
:1006a00044000500810f700002003a0014000500ac
:1006b0008502e9000000400081c04800fcff3b00cb
:1006c0000170a000240005000004be00e9ff07003f
:1006d0000003be000405be000200be00e5ff0700e7
:1006e000844f7500000006000200be006450e10067
:1006f000050036006420e100020036000968a3000e
:1007000001003a000800be000160a0004f0678001a
:100710004f05be004f04be0000000600f0ff2f0092
:10072000f1ff2700f9ff3700889fbe008a9fbe00b7
:100730008c1f7800e4ff0700ebff330003866c009a
:100740006450e100240032006420e1002700320000
:100750006150e100220032006120e10021003200fe
:100760008b854200eb07b1000134b800003ab800b5
:100770000804420089844a00013ab8000030b800f9
:100780008880400009014a00040033000000400056
:1007900081804800020149008b05e900c909dd009c
:1007a000830170000100320013002000c814de0035
:1007b0004814dd004709de001200b200c808de0060
:1007c0000884700085ff070001f0a1000cf0a7006d
:1007d00001f0a000cdff37006120e100cfff320023
:1007e0000801be000200be00f7ff37006150e100c3
:1007f000fcff3a00c9ff3700881f78000304780027
:100800000300e00007003d0060001000e0801800d9
:1008100060011900e081190002003b0001f02d0089
:10082000030037000400070008f0a70001f0a00053
:100830004f04780000000600889fbe008a9fbe001b
:1008400000827000040271000482710026003200f0
:100850000004be000200be006011b8006b09200059
:10086000950220000182cf000a0039000541b10045
:100870000082cf00070039000541b1000982cf0096
:10088000040039000541b1000882cf0001003900a1
:100890000541b10005425200120032000a003b003f
:1008a00082817100610164008100d1000080d30069
:1008b0008984d3000884d3008b05e8000442e80053
:1008c000f7ff3a00070037000804440089844c0011
:1008d00000004800818048008b05e9000442e900df
:1008e000f9ff3a003dff07004f05be004f04be0070
:0408f00000000600fe
:020000040000fa
:1008f4000800fa0020079800310798003e00900095
:10090400cf80de0031ff070002002000a34724004f
:10091400d1fe0700008fbe002e009000e10f5000b2
:1009240003003200e20f50001b0032003500370094
:1009340005e1a9000021ef000421a900210880009d
:10094400000320000100700020088800020020003d
:10095400139e24001e00be0072ff07000200200048
:1009640003382400bcfe0700fdfe070000007800e9
:100974001008880005e1a8000000000020048000a1
:10098400680060000000e000fcff32008460a90001
:1009940005e1a9001b00370011e1a9000621ef00c1
:1009a4001021a900810880000003200001007000cc
:1009b4008008880002002000139e24001e00be0050
:1009c40058ff07000200200003382400a2fe07009d
:1009d400e3fe0700000078006008880011e1a80029
:1009e400000000002104800000042000008060005a
:1009f4000000e000fbff320084c0a90011e1a9005f
:100a0400000000000080fa00000006000800fa0060
:100a140020079800310798003e009000cf80de0048
:100a2400eafe070002002000a34724008afe070014
:100a3400008fbe002e009000e10f50000300320032
:100a4400e20f5000150032002800370005e1a9002c
:100a54000021ef000421a90021088000f0fc2f00f0
:100a6400008060000050a0002008880002002000e0
:100a7400139e24001e00be002aff0700020020006f
:100a84000328240074fe0700b5fe07000000780068
:100a94001008880005e1a8001400370011e1a9003e
:100aa4000621ef000421a90081088000f0fc2f003a
:100ab400008060000050a000800888000200200030
:100ac400139e24001e00be0016ff07000200200033
:100ad4000328240060fe0700a1fe07000000780040
:100ae4006008880011e1a800000000000080fa00fe
:100af400000006000200fa00000f78001e007800d3
:100b0400e10f500003003200e20f500008003200f1
:100b14000f0037000000000020048000680060001f
:100b24000000e000fcff32008460a90008003700e8
:100b34000000000021048000000420000080600008
:100b44000000e000fbff320084c0a90000000000a8
:100b54000080fa00000006000000fa00c602a900a6
:100b6400c622a9008c00a800501680006100600015
:100b740000f0a7000000ea000000e9004f00de00da
:100b8400004078000080fb00610060005116800086
:100b94000100a10001007000501688008400a80024
:100ba400a10f20001000200051ff07008400a800be
:100bb400a10f2000100020004dff0700eaff3700be
:100bc4000000fa00c602a900c622a900411f2000a5
:100bd400100020008dff0700a10f2000100020004e
:100be4008aff07008cc0a8005016800061006000d6
:100bf40000f0a7000000ea000000e9004f00de005a
:100c0400004078000080fb00610060005116800005
:100c14000100a1000100700050168800100020009f
:100c2400b4ff0700f0ff37000000fa00c602a90075
:100c3400c622a900d902a900411f200010002000eb
:100c440072ff07008c00a80050168000610060004d
:100c540000f0a7000000ea000000e9004f00de00f9
:100c6400004078000080fb006100600051168000a5
:100c74000100a1000100700050168800100020003f
:100c84009cff0700f0ff37000000fa00e6ff0700b2
:0c0c94000000eb000080fa0000000600e9
:00000001FF
