:020000040000fa
:080000000001040000000000f3
:020000040000fa
:04000800d80100001b
:020000040000fa
:04000c00d801000017
:020000040000fa
:04001000d801000013
:020000040000fa
:04001400d80100000f
:020000040000fa
:04001800d80100000b
:020000040000fa
:04001c00d801000007
:020000040000fa
:04002000d801000003
:020000040000fa
:04002400d8010000ff
:020000040000fa
:04002800d8010000fb
:020000040000fa
:04002c00d8010000f7
:020000040000fa
:04003000d8010000f3
:020000040000fa
:04003400d8010000ef
:020000040000fa
:04003800d8010000eb
:020000040000fa
:04003c00d8010000e7
:020000040000fa
:04004000d8010000e3
:020000040000fa
:04004400d8010000df
:020000040000fa
:04004800d8010000db
:020000040000fa
:04004c00d8010000d7
:020000040000fa
:04005000d8010000d3
:020000040000fa
:04005400d8010000cf
:020000040000fa
:04005800d8010000cb
:020000040000fa
:04005c00d8010000c7
:020000040000fa
:04006000d8010000c3
:020000040000fa
:04006400d8010000bf
:020000040000fa
:04006800d8010000bb
:020000040000fa
:04006c00d8010000b7
:020000040000fa
:04007000d8010000b3
:020000040000fa
:04007400d8010000af
:020000040000fa
:04007800d8010000ab
:020000040000fa
:04007c00d8010000a7
:020000040000fa
:04008000d8010000a3
:020000040000fa
:04008400d80100009f
:020000040000fa
:04008800d80100009b
:020000040000fa
:04008c00d801000097
:020000040000fa
:04009000d801000093
:020000040000fa
:04009400d80100008f
:020000040000fa
:04009800d80100008b
:020000040000fa
:04009c00d801000087
:020000040000fa
:0400a000d801000083
:020000040000fa
:0400a400d80100007f
:020000040000fa
:0400a800d80100007b
:020000040000fa
:0400ac00d801000077
:020000040000fa
:0400b000d801000073
:020000040000fa
:0400b400d80100006f
:020000040000fa
:0400b800d80100006b
:020000040000fa
:0400bc00d801000067
:020000040000fa
:0400c000d801000063
:020000040000fa
:0400c400d80100005f
:020000040000fa
:0400c800d80100005b
:020000040000fa
:0400cc00d801000057
:020000040000fa
:0400d000d801000053
:020000040000fa
:0400d400d80100004f
:020000040000fa
:0400d800d80100004b
:020000040000fa
:04010800d80100001a
:020000040000fa
:04010c00d801000016
:020000040000fa
:04011000d801000012
:020000040000fa
:04011400d80100000e
:020000040000fa
:04011800d80100000a
:020000040000fa
:04011c00d801000006
:020000040000fa
:04012000d801000002
:020000040000fa
:04012400d8010000fe
:020000040000fa
:04012800d8010000fa
:020000040000fa
:04012c00d8010000f6
:020000040000fa
:04013000d8010000f2
:020000040000fa
:04013400d8010000ee
:020000040000fa
:04013800d8010000ea
:020000040000fa
:04013c00d8010000e6
:020000040000fa
:04014000d8010000e2
:020000040000fa
:04014400d8010000de
:020000040000fa
:04014800d8010000da
:020000040000fa
:04014c00d8010000d6
:020000040000fa
:04015000d8010000d2
:020000040000fa
:04015400d8010000ce
:020000040000fa
:04015800d8010000ca
:020000040000fa
:04015c00d8010000c6
:020000040000fa
:04016000d8010000c2
:020000040000fa
:04016400d8010000be
:020000040000fa
:04016800d8010000ba
:020000040000fa
:04016c00d8010000b6
:020000040000fa
:04017000d8010000b2
:020000040000fa
:04017400d8010000ae
:020000040000fa
:04017800d8010000aa
:020000040000fa
:04017c00d8010000a6
:020000040000fa
:04018000d8010000a2
:020000040000fa
:04018400d80100009e
:020000040000fa
:04018800d80100009a
:020000040000fa
:04018c00d801000096
:020000040000fa
:04019000d801000092
:020000040000fa
:04019400d80100008e
:020000040000fa
:04019800d80100008a
:020000040000fa
:04019c00d801000086
:020000040000fa
:0401a000d801000082
:020000040000fa
:0401a400d80100007e
:020000040000fa
:0401a800d80100007a
:020000040000fa
:0401ac00d801000076
:020000040000fa
:0401b000d801000072
:020000040000fa
:0401b400d80100006e
:020000040000fa
:0401b800d80100006a
:020000040000fa
:0401bc00d801000066
:020000040000fa
:0401c000d801000062
:020000040000fa
:0401c400d80100005e
:020000040000fa
:0401c800d80100005a
:020000040000fa
:0401cc00d801000056
:020000040000fa
:0401d000d801000052
:020000040000fa
:0401d400d80100004e
:020000040000fa
:0401d800d80100004a
:020000040000fa
:100200000f8220000eff20000e0188000000000079
:10021000000020000000e000020032000001200089
:100220002002880014000700630007000000e000bf
:1002300003003a002098200001002000020037004f
:100240000000200001002000810f7000010032003a
:1002500014000700000020000000e000020032004f
:10026000000002000000000044070200000000003f
:100270000040da000000fe004440a900c001200058
:100280000000e0000300320000002000a001880010
:100290004440a800000006008a1f78008b1f7800e9
:1002a0000000060091018800800478000000eb0047
:1002b0001a003700e284440032a0b4009905ba0065
:1002c000e284440032a0b4009906ba00e2844400fb
:1002d00032a0b4000006eb00476fde00fd07b2005d
:1002e000636ce10003003a00ebff07000000eb0045
:1002f0000a003700606ce10004003a00005deb008a
:100300008b05e900fdff3e00040037006168e10055
:10031000010032000086eb000b00070019c7ba008d
:100320001905ba000e04e00003003a000a00e000dc
:10033000e0ff3a0000000600fe07b2009e018800c0
:100340008a047800f5ff3700395dba008b05e900b3
:100350000c003200295dba008b05e900080032006c
:100360000c00e00003003a00e284440032a0b40034
:10037000f5ff370019ddba008b05e900faff3a00f6
:100380008904e800e184440032a0b40000000600c3
:10039000000000000000000000000000000000005d
:1003a000000000000000000000000000000000004d
:1003b0000040da000000fe000000050003f0a2008b
:1003c000889fbe008a9fbe008c1f78001501070021
:1003d0001c0133006450e1004f0032006420e10052
:1003e0005200320003826c0007003b000905d00078
:1003f0000306d000820f54000c065d000200390095
:1004000002003200890178000306780085825500d9
:1004100004003d000003fd008103fd008502ea00a9
:100420008b854200840f720002003b0060001000c8
:10043000e08018006011b8000005eb007a28e100a8
:100440000a00390006007800c75ddd00f707b2003a
:10045000878075002d003700828171000a017800c5
:10046000610560008180d1000080d3008502e90031
:10047000f9ff3b00060440008784480002003b006f
:1004800060041400e0841c000988a3000700320007
:100490008a81710082817100610164008904d10048
:1004a0000884d3008b05e800170037000978a30003
:1004b00013003a000b00e000130034008b05e90044
:1004c0000804440089844c000a4474000978a3009d
:1004d0000d003a000b00e000070034008b05e90036
:1004e0000804440089844c0001003a000b002000fd
:1004f0000978a300f7ff32000001eb00020037008b
:10050000828171000a0178008b0007000cf0a700bf
:1005100001f0a000d40037006420e10002003a009e
:10052000838f6c00d40033000801be000200be00bf
:10053000cd003700889fbe008a9fbe008c1f7800c8
:10054000b8000700bf00330003866c006450e10070
:100550002e0032006420e100330032006150e100df
:100560002f0032006120e100310032008585550006
:10057000eb07b00009002000080420000500370048
:100580000804440089844c000a003100060343003b
:1005900087834b000001530081815b00f8ff33002b
:1005a0000203be000800a0000804440089844c0037
:1005b000f6ff3900c639dd00830173000100320007
:1005c000130020008904d1000884d3000998a300f7
:1005d000050032000800a7000300a0008904d10034
:1005e0000884d3008b05e8008904d1000884d30077
:1005f0000001eb000281d2004f00070001f0a100d2
:100600000cf0a70001f0a000970037006420e10083
:10061000990032000801be000200be00f7ff37005b
:100620006120e100940032006000b800f3ff370061
:100630000000200001f82700f0ff37000001be0095
:10064000630007000470a70003f0a1006509b10072
:10065000160032000d0035006828e1000600350064
:10066000f0ff2f00f1ff27000300e00013003b0024
:1006700001002800000005000000400081804800c3
:100680008502e900fcff3a0008003700f88f4200bd
:1006900002003c008000eb00000005008100d1005a
:1006a0000080d3008502e800fcff3a000300e00070
:1006b00002003b0060001000e0801800000006000f
:1006c0000001be00420007000470a70003f0a10073
:1006d00003f8a30013003a006509b10010003200ce
:1006e000090035006928e1000200350001002800fa
:1006f0000000050000004000818048008502e900fc
:10070000fcff3a0000000600f88f420005003500ab
:100710008100d1000080d3008502e800fcff3a0090
:10072000000006008000eb00000005004f89de009d
:100730008201780087003700810020006180550029
:100740000b003d000b00200061fe2f000100e100c6
:100750001d00340082817100610164008904d100b0
:100760000884d3000000e800faff3a00710020007e
:1007700061006400030070000200600009003200a4
:1007800061044400e0844c000988a50005003200a3
:100790008b05e8006808e10002003a008904d100f6
:1007a0000884d300f20f20000258e10005003d004c
:1007b000c75ddd00f907b200898075000800780088
:1007c000000006000bf827008b00780000000500f1
:1007d000c70ade00f107b200f50fb20008003200d0
:1007e000e1cf4200020032000170a00024000500a9
:1007f000810f70000100320004080500440005006c
:10080000810f700002003a00140005008502e90023
:100810000000400081c04800fcff3b000170a000c8
:10082000240005000004be00e9ff07000003be002d
:100830000405be000200be00e5ff0700844f7500fe
:10084000000006000200be006450e1000500360012
:100850006420e100020036000968a30001003a00ac
:100860000800be000160a0004f0678004f05be00e2
:100870004f04be0000000600f0ff2f00f1ff27002c
:10088000f9ff3700889fbe008a9fbe008c1f78004a
:10089000e4ff0700ebff330003866c006450e100c7
:1008a000240032006420e100270032006150e100a2
:1008b000220032006120e100210032008b854200dd
:1008c000eb07b1000134b800003ab8000804420058
:1008d00089844a00013ab8000030b800888040009e
:1008e00009014a00040033000000400081804800f4
:1008f000020149008b05e900c909dd008301700090
:100900000100320013002000c814de004814dd008e
:100910004709de001200b200c808de00088470003b
:1009200085ff070001f0a1000cf0a70001f0a00076
:10093000cdff37006120e100cfff32000801be008b
:100940000200be00f7ff37006150e100fcff3a00f3
:10095000c9ff3700881f7800030478000300e00017
:1009600007003d0060001000e080180060011900e1
:10097000e081190002003b0001f02d000300370068
:100980000400070008f0a70001f0a0004f04780061
:1009900000000600889fbe008a9fbe000082700093
:1009a0000402710004827100260032000004be00bf
:1009b0000200be006011b8006b0920009502200003
:1009c0000182cf000a0039000541b1000082cf004a
:1009d000070039000541b1000982cf000400390049
:1009e0000541b1000882cf00010039000541b10086
:1009f00005425200120032000a003b008281710061
:100a0000610164008100d1000080d3008984d3009b
:100a10000884d3008b05e8000442e800f7ff3a00a1
:100a2000070037000804440089844c000000480097
:100a3000818048008b05e9000442e900f9ff3a0093
:100a40003dff07004f05be004f04be00000006003a
:100a500080007800010178003104e000fdff3a00d9
:080a6000000051000000060037
:020000040000fa
:100a680054680000697300002069000073200000ca
:100a7800612000007665000072790000206c00009b
:100a88006f6e000067200000737400007269000038
:080a98006e6700000000000081
:020000040000fa
:100aa0000400fa000000eb00100798000000eb00c3
:100ab000000f78002d0037001e0078004300dd0095
:100ac000e40040000080200000804000100078001a
:100ad0008000e8001e0078004301dd004080200017
:100ae00000004100010878001e0078004300dd008e
:100af000e40040000080200000804000900078006a
:100b00001e0078004300dd006601400000802000e8
:100b10000000410010007800808f50001200350066
:100b20001e007800c300dd0000802000008040002f
:100b3000900078001e0078004300dd000081e8008e
:100b4000008020000000410010007800010001003a
:100b50001e007800c300dd004080200000804000bf
:100b60008000eb00010878001e0fe8001e007800ee
:100b7000e30f5000d0ff34000080fa0000000600b0
:100b80000400fa00881f7800100798009e0090006b
:100b9000010f78001e00780020009000ef0f500039
:100ba0002d003c001e007800a00090001e00780080
:100bb00040009000808f500003003d0000022000a4
:100bc000ac0107001f0037001e0078009000900065
:100bd0001e00780020009000808040001e007800f9
:100be0004000900000805000000478001e00780053
:100bf0001000780096ff0700800f54000f003100ae
:100c00001e007800900078001e007800100190000f
:100c10001e00780020009000000141001e007800b6
:100c2000400090000000510000804000104078001b
:100c30000000fb008f0107000200370000022000c7
:100c40008c0107001e007800200090008000e80062
:100c50001e007800210098000000eb004f0478008f
:100c60000080fa00000006000400fa00881f7800e7
:100c7000100798009e009000010f78001e00780079
:100c800030009000e10f50001f003a001e00780075
:100c9000400090000000e00016003a001e007800be
:100ca000100090000000e800000478001e007800aa
:100cb0001000780066ff07000001780011000900ad
:100cc0000284d8008000fd00800078001e007800bb
:100cd000110098001e007800100090000000e00055
:100ce00009003a001e007800010120004100980030
:100cf000050037001e007800400090008000e900e9
:100d00001e007800410098001e0078008000eb0073
:100d10002100980000082000560107000000eb00a9
:100d20004f0478000080fa00000006000400fa007a
:100d3000100798009e009000010f78005016800068
:100d40006100600000f0a7000000ea000000e90078
:100d50004f00de00004078000080fb006100600072
:100d6000511680000100a10001007000501688009b
:100d70000000eb000080fa00000006000400fa000a
:100d8000100798009e009000010f7800d016800098
:100d90004800de00614060008080fb001e0078009b
:100da000110098001e007800100090000000e00084
:100db0000e003a001e00780010007800e10f50008d
:100dc0000a003a001e007800c00090001e00780063
:100dd000400090003000900000f0a7000000ea0002
:100de0000000e9004f00de00b00098001e0078000f
:100df000900090001e007800010878000000eb00d1
:100e00000080fa00000006000600fa00881f780043
:100e100020079800ae009000010f7800000000004d
:100e200000158000610060000000e000fcff32005f
:100e300000148000100798009e007800688440002d
:100e40001e009000cf80de0038fe07000200200068
:100e500003482400b7fd070002002000633124008e
:100e600088fe0700020020008324240054fd0700b0
:100e7000f2fd070000007800300498004f0478006d
:100e80000080fa00000006001400fa00c602a90063
:100e9000d902a800813e2000100020004d0007006c
:100ea000510020001000200091000700e30007001f
:100eb0002800070010002000300798000000eb0019
:100ec000200798000000eb00100798000000eb00de
:100ed0004007980040532800000f78001e0f98002c
:100ee000005c2000004088004063200040408800f3
:100ef0006069200080408800e06b2000c0408800ce
:100f00001e4088005e4088001228ef006a004700fb
:100f1000d04088000428ef000c28ef001428ef00d0
:100f20001c28ef0010002000304088002003200023
:100f30007040880040062000b0408800400020003b
:100f4000f0408800d6fe070010002000a200070035
:100f5000fcff37000000fa002115800000fc2f0084
:100f6000008060000030a00020158800a042a90089
:100f700021158000f00f2e00008060000080a0008e
:100f80002015880001158000000e2000010070006f
:100f90000015880011158000f0cf2f000080600040
:100fa000101588003115800000ff2f0000806000c0
:100fb0000010a00030158800a682a9000080eb0078
:100fc00040158800a842a900a1e2a8000080fa000c
:100fd000000006000800fa0020079800310798007a
:100fe0003e009000cf80de00d0fd07000200200010
:100ff000a34724004ffd0700008fbe002e00900085
:10100000e10f500003003200e20f50001b003200dd
:101010003500370005e1a9000021ef000421a900f7
:1010200021088000000320000100700020088800d3
:1010300002002000139e24001e00be0011fe0700c7
:1010400002002000033824003afd07009cfd070041
:10105000000078001008880005e1a80000000000ea
:1010600020048000680060000000e000fcff320007
:101070008460a90005e1a9001b00370011e1a90067
:101080000621ef001021a900810880000003200044
:10109000010070008008880002002000139e2400d8
:1010a0001e00be00f7fd07000200200003382400e8
:1010b00020fd070082fd070000007800600888001e
:1010c00011e1a800000000002104800000042000bd
:1010d000008060000000e000fbff320084c0a90037
:1010e00011e1a900000000000080fa0000000600e5
:1010f0000800fa0020079800310798003e00900091
:10110000cf80de0089fd070002002000a3472400f5
:1011100008fd0700008fbe002e009000e10f500078
:1011200003003200e20f50001500320028003700a3
:1011300005e1a9000021ef000421a9002108800099
:10114000f0fc2f00008060000050a0002008880004
:1011500002002000139e24001e00be00c9fd0700ef
:101160000200200003282400f2fc070054fd0700c1
:10117000000078001008880005e1a800140037007e
:1011800011e1a9000621ef000421a90081088000d7
:10119000f0fc2f00008060000050a0008008880054
:1011a00002002000139e24001e00be00b5fd0700b3
:1011b0000200200003282400defc070040fd070099
:1011c000000078006008880011e1a800000000001d
:1011d0000080fa00000006000200fa00000f78000c
:1011e0001e007800e10f500003003200e20f5000b3
:1011f000080032000f0037000000000020048000cb
:10120000680060000000e000fcff32008460a9007c
:1012100008003700000000002104800000042000c6
:10122000008060000000e000fbff320084c0a900e5
:10123000000000000080fa00000006000000fa0034
:1012400022a2a8002342a900101180003000b300a0
:10125000101188001111800030fe2f000080600006
:101260008001b3001011880021e2a8000080fa007c
:10127000000006000200fa00004f780000000000a5
:1012800000118000620060000000e000fcff3a00f6
:101290001e00fb00201188000080fa0000000600fc
:1012a0000400fa00100798000000eb00000f78001f
:1012b0000c00370000000000001180006200600098
:1012c0000000e000fcff3a001e0078009e00900045
:1012d00000804000104078000000fb0020118800d2
:1012e0001e0fe8001e0078009e0090000080400065
:1012f000104078000004e000eeff3a000080fa00a1
:0413000000000600e3
:020000040000fa
:1013040000080000200000000000000000000000b1
:00000001FF
