:020000040000fa
:080000000001040000000000f3
:020000040000fa
:04000800c80100002b
:020000040000fa
:04000c00c801000027
:020000040000fa
:04001000c801000023
:020000040000fa
:04001400c80100001f
:020000040000fa
:04001800c80100001b
:020000040000fa
:04001c00c801000017
:020000040000fa
:04002000c801000013
:020000040000fa
:04002400c80100000f
:020000040000fa
:04002800c80100000b
:020000040000fa
:04002c00c801000007
:020000040000fa
:04003000c801000003
:020000040000fa
:04003400c8010000ff
:020000040000fa
:04003800c8010000fb
:020000040000fa
:04003c00c8010000f7
:020000040000fa
:04004000c8010000f3
:020000040000fa
:04004400c8010000ef
:020000040000fa
:04004800c8010000eb
:020000040000fa
:04004c00c8010000e7
:020000040000fa
:04005000c8010000e3
:020000040000fa
:04005400c8010000df
:020000040000fa
:04005800c8010000db
:020000040000fa
:04005c00c8010000d7
:020000040000fa
:04006000c8010000d3
:020000040000fa
:04006400c8010000cf
:020000040000fa
:04006800c8010000cb
:020000040000fa
:04006c00c8010000c7
:020000040000fa
:04007000c8010000c3
:020000040000fa
:04007400c8010000bf
:020000040000fa
:04007800c8010000bb
:020000040000fa
:04007c00c8010000b7
:020000040000fa
:04008000c8010000b3
:020000040000fa
:04008400c8010000af
:020000040000fa
:04008800c8010000ab
:020000040000fa
:04008c00c8010000a7
:020000040000fa
:04009000c8010000a3
:020000040000fa
:04009400c80100009f
:020000040000fa
:04009800c80100009b
:020000040000fa
:04009c00c801000097
:020000040000fa
:0400a000c801000093
:020000040000fa
:0400a400c80100008f
:020000040000fa
:0400a800c80100008b
:020000040000fa
:0400ac00c801000087
:020000040000fa
:0400b000c801000083
:020000040000fa
:0400b400c80100007f
:020000040000fa
:0400b800c80100007b
:020000040000fa
:0400bc00c801000077
:020000040000fa
:0400c000c801000073
:020000040000fa
:0400c400c80100006f
:020000040000fa
:0400c800c80100006b
:020000040000fa
:0400cc00c801000067
:020000040000fa
:0400d000c801000063
:020000040000fa
:0400d400c80100005f
:020000040000fa
:0400d800c80100005b
:020000040000fa
:04010800c80100002a
:020000040000fa
:04010c00c801000026
:020000040000fa
:04011000c801000022
:020000040000fa
:04011400c80100001e
:020000040000fa
:04011800c80100001a
:020000040000fa
:04011c00c801000016
:020000040000fa
:04012000c801000012
:020000040000fa
:04012400c80100000e
:020000040000fa
:04012800c80100000a
:020000040000fa
:04012c00c801000006
:020000040000fa
:04013000c801000002
:020000040000fa
:04013400c8010000fe
:020000040000fa
:04013800c8010000fa
:020000040000fa
:04013c00c8010000f6
:020000040000fa
:04014000c8010000f2
:020000040000fa
:04014400c8010000ee
:020000040000fa
:04014800c8010000ea
:020000040000fa
:04014c00c8010000e6
:020000040000fa
:04015000c8010000e2
:020000040000fa
:04015400c8010000de
:020000040000fa
:04015800c8010000da
:020000040000fa
:04015c00c8010000d6
:020000040000fa
:04016000c8010000d2
:020000040000fa
:04016400c8010000ce
:020000040000fa
:04016800c8010000ca
:020000040000fa
:04016c00c8010000c6
:020000040000fa
:04017000c8010000c2
:020000040000fa
:04017400c8010000be
:020000040000fa
:04017800c8010000ba
:020000040000fa
:04017c00c8010000b6
:020000040000fa
:04018000c8010000b2
:020000040000fa
:04018400c8010000ae
:020000040000fa
:04018800c8010000aa
:020000040000fa
:04018c00c8010000a6
:020000040000fa
:04019000c8010000a2
:020000040000fa
:04019400c80100009e
:020000040000fa
:04019800c80100009a
:020000040000fa
:04019c00c801000096
:020000040000fa
:0401a000c801000092
:020000040000fa
:0401a400c80100008e
:020000040000fa
:0401a800c80100008a
:020000040000fa
:0401ac00c801000086
:020000040000fa
:0401b000c801000082
:020000040000fa
:0401b400c80100007e
:020000040000fa
:0401b800c80100007a
:020000040000fa
:0401bc00c801000076
:020000040000fa
:0401c000c801000072
:020000040000fa
:0401c400c80100006e
:020000040000fa
:0401c800c80100006a
:020000040000fa
:0401cc00c801000066
:020000040000fa
:0401d000c801000062
:020000040000fa
:0401d400c80100005e
:020000040000fa
:0401d800c80100005a
:020000040000fa
:10020000ef8720000eff20000e0188000000000094
:10021000000020000000e000020032000001200089
:1002200020028800140007005b0007000000e000c7
:1002300003003a00e09b200001002000020037008c
:100240000000200001002000810f7000010032003a
:1002500014000700000020000000e000020032004f
:100260000000020000000000ae08020000000000d4
:100270000040da000000fe004440a9000000200019
:100280000000e0000300320000002000a001880010
:100290004440a800000006008a1f78008b1f7800e9
:1002a0000000060091018800800478000000eb0047
:1002b0001a003700e284440032a0b4009905ba0065
:1002c000e284440032a0b4009906ba00e2844400fb
:1002d00032a0b4000006eb00476fde00fd07b2005d
:1002e000636ce10003003a00ebff07000000eb0045
:1002f0000a003700606ce10004003a00005deb008a
:100300008b05e900fdff3e00040037006168e10055
:10031000010032000086eb000b00070019c7ba008d
:100320001905ba000e04e00003003a000a00e000dc
:10033000e0ff3a0000000600fe07b2009e018800c0
:100340008a047800f5ff3700395dba008b05e900b3
:100350000c003200295dba008b05e900080032006c
:100360000c00e00003003a00e284440032a0b40034
:10037000f5ff370019ddba008b05e900faff3a00f6
:100380008904e800e184440032a0b40000000600c3
:100390000040da000000fe0000000500889fbe005b
:1003a0008a9fbe008c1f7800970007009e003300d4
:1003b00003866c006450e1002e0032006420e100ee
:1003c000330032006150e1002f0032006120e10073
:1003d0003100320085855500eb07b0000900200090
:1003e00008042000050037000804440089844c00fc
:1003f0000a0031000603430087834b0000015300cd
:1004000081815b00f8ff33000203be000800a000fa
:100410000804440089844c00f6ff3900c639dd0029
:100420008301730001003200130020008904d10011
:100430000884d3000998a300050032000800a70033
:100440000300a0008904d1000884d3008b05e800d4
:100450008904d1000884d3000001eb000281d2009e
:100460002e00070001f0a1000cf0a70001f0a00091
:10047000760037006420e100780032000801be00f9
:100480000200be00f7ff37006120e1007300320078
:100490006000b800f3ff37000000200001f82700db
:1004a000f0ff37000001be00420007000470a70003
:1004b00003f0a10003f8a30013003a006509b1009e
:1004c00010003200090035006928e1000200350003
:1004d0000100280000000500000040008180480065
:1004e0008502e900fcff3a0000000600f88f420098
:1004f000050035008100d1000080d3008502e800ae
:10050000fcff3a00000006008000eb000000050040
:100510004f89de00820178008700370081002000cb
:10052000618055000b003d000b00200061fe2f0094
:100530000100e1001d00340082817100610164004e
:100540008904d1000884d3000000e800faff3a00d3
:100550007100200061006400030070000200600070
:100560000900320061044400e0844c000988a500c1
:10057000050032008b05e8006808e10002003a003f
:100580008904d1000884d300f20f20000258e10052
:1005900005003d00c75ddd00f907b20089807500e8
:1005a00008007800000006000bf827008b00780098
:1005b00000000500c70ade00f107b200f50fb20027
:1005c00008003200e1cf4200020032000170a000ba
:1005d00024000500810f70000100320004080500ae
:1005e00044000500810f700002003a00140005006d
:1005f0008502e9000000400081c04800fcff3b008c
:100600000170a000240005000004be00e9ff0700ff
:100610000003be000405be000200be00e5ff0700a7
:10062000844f7500000006000200be006450e10027
:10063000050036006420e100020036000968a300ce
:1006400001003a000800be000160a0004f067800db
:100650004f05be004f04be0000000600f0ff2f0053
:10066000f1ff2700f9ff3700889fbe008a9fbe0078
:100670008c1f7800e4ff0700ebff330003866c005b
:100680006450e100240032006420e10027003200c1
:100690006150e100220032006120e10021003200bf
:1006a0008b854200eb07b1000134b800003ab80076
:1006b0000804420089844a00013ab8000030b800ba
:1006c0008880400009014a00040033000000400017
:1006d00081804800020149008b05e900c909dd005d
:1006e000830170000100320013002000c814de00f6
:1006f0004814dd004709de001200b200c808de0021
:100700000884700085ff070001f0a1000cf0a7002d
:1007100001f0a000cdff37006120e100cfff3200e3
:100720000801be000200be00f7ff37006150e10083
:10073000fcff3a00c9ff3700881f780003047800e7
:100740000300e00007003d0060001000e08018009a
:1007500060011900e081190002003b0001f02d004a
:10076000030037000400070008f0a70001f0a00014
:100770004f04780000000600889fbe008a9fbe00dc
:1007800000827000040271000482710026003200b1
:100790000004be000200be006011b8006b0920001a
:1007a000950220000182cf000a0039000541b10006
:1007b0000082cf00070039000541b1000982cf0057
:1007c000040039000541b1000882cf000100390062
:1007d0000541b10005425200120032000a003b0000
:1007e00082817100610164008100d1000080d3002a
:1007f0008984d3000884d3008b05e8000442e80014
:10080000f7ff3a00070037000804440089844c00d1
:1008100000004800818048008b05e9000442e9009f
:10082000f9ff3a003dff07004f05be004f04be0030
:100830000000060080007800010178003104e0002b
:0c084000fdff3a0000005100000006001f
:020000040000fa
:10084c000800fa0020079800310798003e0090003d
:10085c00cf80de002bff070002002000a3472400fe
:10086c00cbfe0700008fbe002e009000e10f500061
:10087c0003003200e20f50001b003200350037003d
:10088c0005e1a9000021ef000421a9002108800046
:10089c0000032000010070002008880002002000e6
:1008ac00139e24001e00be006cff070002002000f7
:1008bc0003382400b6fe0700f7fe0700000078009e
:1008cc001008880005e1a80000000000200480004a
:1008dc00680060000000e000fcff32008460a900aa
:1008ec0005e1a9001b00370011e1a9000621ef006a
:1008fc001021a90081088000000320000100700075
:10090c008008880002002000139e24001e00be00f8
:10091c0052ff070002002000033824009cfe070051
:10092c00ddfe0700000078006008880011e1a800d7
:10093c000000000021048000000420000080600002
:10094c000000e000fbff320084c0a90011e1a90007
:10095c00000000000080fa00000006000800fa0009
:10096c0020079800310798003e009000cf80de00f1
:10097c00e4fe070002002000a347240084fe0700c9
:10098c00008fbe002e009000e10f500003003200db
:10099c00e20f5000150032002800370005e1a900d5
:1009ac000021ef000421a90021088000f0fc2f0099
:1009bc00008060000050a000200888000200200089
:1009cc00139e24001e00be0024ff0700020020001e
:1009dc00032824006efe0700affe0700000078001d
:1009ec001008880005e1a8001400370011e1a900e7
:1009fc000621ef000421a90081088000f0fc2f00e3
:100a0c00008060000050a0008008880002002000d8
:100a1c00139e24001e00be0010ff070002002000e1
:100a2c00032824005afe07009bfe070000007800f4
:100a3c006008880011e1a800000000000080fa00a6
:100a4c00000006000200fa00000f78001e0078007b
:100a5c00e10f500003003200e20f5000080032009a
:100a6c000f003700000000002004800068006000c8
:100a7c000000e000fcff32008460a9000800370091
:100a8c0000000000210480000004200000806000b1
:100a9c000000e000fbff320084c0a9000000000051
:100aac000080fa00000006000200fa00000f780037
:100abc002115800000fc2f00008060000030a00099
:100acc0020158800a042a80021158000f00f2e00f0
:100adc00008060000080a0002015880001158000b7
:100aec00000e200001007000001588001115800018
:100afc00f0cf2f0000806000101588001e007800d9
:100b0c00e20f50000b003200e30f500010003200d7
:100b1c00e10f500015003a003115800000ff2f0046
:100b2c00008060000000a00030158800a822a900f9
:100b3c000e0037003115800000ff2f000080600090
:100b4c000010a00030158800a842a900070037004b
:100b5c003115800000ff2f00008060003000b300d2
:100b6c0030158800a862a90000000000a682a90028
:100b7c000080eb0040158800a1e2a8000080fa007c
:100b8c00000006000400fa00000f7800110798001e
:100b9c002115800000fc2f00008060000030a000b8
:100bac0020158800a042a80021158000f00f2e000f
:100bbc00008060000080a0002015880001158000d6
:100bcc00000e200001007000001588001115800037
:100bdc00f0cf2f00008060000080a000101588006e
:100bec001e007800e20f50000b003200e30f5000a3
:100bfc0010003200e10f500015003a003115800052
:100c0c0000ff2f00008060000000a000301588005d
:100c1c00a822a9000e0037003115800000ff2f001c
:100c2c00008060000010a00030158800a842a900c8
:100c3c00070037003115800000ff2f000080600096
:100c4c003000b30030158800a862a9000000000035
:100c5c00a682a9001e009000e20f5000070032008f
:100c6c00e30f500008003200e10f500009003a0079
:100c7c00a6a2a800a822a90006003700a6a2a900d7
:100c8c00a842a90003003700a6a2a800a862a900e8
:100c9c000000000031158000f0f32f000080600090
:100cac00301588000080eb0040158800a1e2a800f8
:100cbc000080fa00000006000400fa00000f780023
:100ccc00214798001e00780010007800e20f5000b9
:100cdc000f003200e30f500047003200e10f5000cc
:100cec006d003a00ae40900040c2b30080cf50007f
:100cfc0068003a001e0078002100200001087800ee
:100d0c001e0078008000eb00613098006200370014
:100d1c00ae409000c0c2b30080cf50000d003a002e
:100d2c001e00780031002000010878001e007800b9
:100d3c00603090009e007800008040008040eb0006
:100d4c00214098001e0078008000eb007130980064
:100d5c00510037001e00780060309000e60f500004
:100d6c0007003a001e0078001100200001087800ee
:100d7c001e0078008000eb006130980046003700c0
:100d8c00ae409000a0c2b30080cf50000e003a00dd
:100d9c001e00780011002000010878001e00780069
:100dac00603090009e007800008040008040eb0096
:100dbc00214098001e0078008040eb00014898000c
:100dcc0010002000350037001e00780060309000c5
:100ddc009e00780000804000ae40900021409800ba
:100dec001e007800603090008000e8001e00780043
:100dfc006130980028003700ae409000a0c2b300cc
:100e0c0080cf50000b003a001e007800110020002b
:100e1c00010878001e007800703090009e00780069
:100e2c00008040008040eb0001489800100020003a
:100e3c001a0037001e007800f030900040062000a9
:100e4c00808f500007003a001e007800110020002f
:100e5c00010878001e0078008000eb0071309800cb
:100e6c000d0037001e007800703090009e00780056
:100e7c0000804000ae409000014898001e007800b1
:100e8c00703090008000e8001e00780071309800ef
:100e9c0001003700000000000000eb000080fa00a9
:100eac00000006000400fa00000f780011079800fb
:100ebc001e0078009e009000310098001e00780003
:100ecc008000eb00110098001e0078008000eb0001
:100edc00210098000080fa00000006000400fa00cf
:100eec00000f7800110798001e0078009000780021
:100efc001e007800200090000000400000804000a0
:100f0c009e009000010878001e00780020009000e0
:100f1c008000e8001e007800210098001e00780078
:100f2c00a00090001e00780030009000808f5000d0
:100f3c0003003a001e0078008000eb0021009800ae
:100f4c000080fa00000006000400fa00000f780090
:100f5c00110798008f00a9001e00780090009000e7
:100f6c001e00780020009000808f500001003a0095
:100f7c008f00a8001e007800900078001e007800fa
:100f8c0010009000000040000080400090007800ad
:100f9c001e009000010878001e00780010009000e0
:100fac008000e8001e007800110098001e007800f8
:100fbc00900090001e00780030009000808f500050
:100fcc0003003a001e0078008000eb00110098002e
:100fdc008f00a800100020000080fa00000006001e
:100fec000200fa00000f78001e007800a0009000ac
:100ffc001e00780010009000808f50000600350015
:10100c001e007800a00090001e00780010009000d8
:10101c0000805000080037001e007800b0009000df
:10102c001e007800200190001e0078001000900037
:10103c0000005100008040000080fa000000060013
:10104c000200fa00000f78000080fa000000060091
:10105c000200fa00000f78000080fa000000060081
:10106c000200fa00000f78000080fa000000060071
:10107c000200fa00000f78000080fa000000060061
:10108c000200fa00000f78000080fa000000060051
:10109c000200fa00000f78000080fa000000060041
:1010ac000c00fa00500798000000eb004007980075
:1010bc001200370068004700800078006080200034
:1010cc00a1ff0700000f78004e0090002047980009
:1010dc00ae409000e0802000f7fe0700200798004b
:1010ec002e009000e10f500004003a0061812000b6
:1010fc000081200007000700300798006080200066
:10110c00b7ff07000000e000eaff3c000080fa0097
:10111c00000006000400fa00000f78001107980088
:10112c0020408000e10f500003003200e20f50001d
:10113c0003003200040037000428ef0002003700df
:10114c000428ef00000000000080fa0000000600f8
:10115c000800fa00310020002000200089fe070062
:10116c00720007002000200046000700c602a900fc
:10117c00c622a9000000eb00200798000000eb003d
:10118c003007980000f42100000f7800000c2e00ae
:10119c0010079800410620006080200041ff0700e6
:1011ac0010002000004088000428ef000000eb0035
:1011bc000080fa00000006000800fa0020079800e2
:1011cc0031079800be009000110798000000eb005a
:1011dc00000f7800250037001e0078004300dd006a
:1011ec009e00900000804000a00090008100e8006c
:1011fc00210098001e0078004300dd009e00900046
:10120c0000804000a00090001e0078004300dd002c
:10121c001e0190000000410030009000808f5000b3
:10122c00110035001e0078004300dd009e00900088
:10123c0000804000900078001e0078004300dd0024
:10124c001e01900000004100100090000100010000
:10125c001e0078004300dd009e00900000804000de
:10126c008000eb00210098001e0fe8002e0090007b
:10127c009e007800808f5000d7ff35000080fa0068
:10128c00000006000200fa00000f78001e00780033
:10129c00e10f500003003200e20f50000600320054
:1012ac000a003700b0002000f010880017e2a800f8
:1012bc001942a80005003700b0002000a0108800db
:1012cc000de2a8000f42a800000000000080fa0008
:1012dc00000006000400fa00881f78001007980030
:1012ec000000eb00000f7800070037001e007800ac
:1012fc009e00900000804000104078000000fb0031
:10130c00d01088001e0fe8001e0478001e0090000c
:10131c0045fd07000000e800800f5400f3ff390082
:10132c004f0478000080fa00000006000000fa006c
:10133c00010e8000c0ff2f00008060000000a000a4
:10134c00000e8800010e800030ff2f00008060002e
:10135c000020a000000e8800c8a1a800f03f2200c9
:10136c00200e8800c1e1a8000080fa0000000600f1
:020000040000fa
:10137c00000800007e0000000000000000000000db
:00000001FF
