:020000040000fa
:080000000001040000000000f3
:020000040000fa
:04000800fa010000f9
:020000040000fa
:04000c00fa010000f5
:020000040000fa
:04001000fa010000f1
:020000040000fa
:04001400fa010000ed
:020000040000fa
:04001800fa010000e9
:020000040000fa
:04001c00fa010000e5
:020000040000fa
:04002000fa010000e1
:020000040000fa
:04002400fa010000dd
:020000040000fa
:04002800fa010000d9
:020000040000fa
:04002c00fa010000d5
:020000040000fa
:04003000fa010000d1
:020000040000fa
:04003400fa010000cd
:020000040000fa
:04003800fa010000c9
:020000040000fa
:04003c00fa010000c5
:020000040000fa
:04004000fa010000c1
:020000040000fa
:04004400fa010000bd
:020000040000fa
:04004800fa010000b9
:020000040000fa
:04004c00fa010000b5
:020000040000fa
:04005000fa010000b1
:020000040000fa
:04005400fa010000ad
:020000040000fa
:04005800fa010000a9
:020000040000fa
:04005c00fa010000a5
:020000040000fa
:04006000fa010000a1
:020000040000fa
:04006400fa0100009d
:020000040000fa
:04006800fa01000099
:020000040000fa
:04006c00fa01000095
:020000040000fa
:04007000fa01000091
:020000040000fa
:04007400fa0100008d
:020000040000fa
:04007800fa01000089
:020000040000fa
:04007c00fa01000085
:020000040000fa
:04008000fa01000081
:020000040000fa
:04008400fa0100007d
:020000040000fa
:04008800cc010000a7
:020000040000fa
:04008c00fa01000075
:020000040000fa
:04009000fa01000071
:020000040000fa
:04009400fa0100006d
:020000040000fa
:04009800fa01000069
:020000040000fa
:04009c00fa01000065
:020000040000fa
:0400a000fa01000061
:020000040000fa
:0400a400fa0100005d
:020000040000fa
:0400a800fa01000059
:020000040000fa
:0400ac00fa01000055
:020000040000fa
:0400b000fa01000051
:020000040000fa
:0400b400fa0100004d
:020000040000fa
:0400b800fa01000049
:020000040000fa
:0400bc00fa01000045
:020000040000fa
:0400c000fa01000041
:020000040000fa
:0400c400fa0100003d
:020000040000fa
:0400c800fa01000039
:020000040000fa
:0400cc00fa01000035
:020000040000fa
:0400d000fa01000031
:020000040000fa
:0400d400fa0100002d
:020000040000fa
:0400d800fa01000029
:020000040000fa
:04010800fa010000f8
:020000040000fa
:04010c00fa010000f4
:020000040000fa
:04011000fa010000f0
:020000040000fa
:04011400fa010000ec
:020000040000fa
:04011800fa010000e8
:020000040000fa
:04011c00fa010000e4
:020000040000fa
:04012000fa010000e0
:020000040000fa
:04012400fa010000dc
:020000040000fa
:04012800fa010000d8
:020000040000fa
:04012c00fa010000d4
:020000040000fa
:04013000fa010000d0
:020000040000fa
:04013400fa010000cc
:020000040000fa
:04013800fa010000c8
:020000040000fa
:04013c00fa010000c4
:020000040000fa
:04014000fa010000c0
:020000040000fa
:04014400fa010000bc
:020000040000fa
:04014800fa010000b8
:020000040000fa
:04014c00fa010000b4
:020000040000fa
:04015000fa010000b0
:020000040000fa
:04015400fa010000ac
:020000040000fa
:04015800fa010000a8
:020000040000fa
:04015c00fa010000a4
:020000040000fa
:04016000fa010000a0
:020000040000fa
:04016400fa0100009c
:020000040000fa
:04016800fa01000098
:020000040000fa
:04016c00fa01000094
:020000040000fa
:04017000fa01000090
:020000040000fa
:04017400fa0100008c
:020000040000fa
:04017800fa01000088
:020000040000fa
:04017c00fa01000084
:020000040000fa
:04018000fa01000080
:020000040000fa
:04018400fa0100007c
:020000040000fa
:04018800cc010000a6
:020000040000fa
:04018c00fa01000074
:020000040000fa
:04019000fa01000070
:020000040000fa
:04019400fa0100006c
:020000040000fa
:04019800fa01000068
:020000040000fa
:04019c00fa01000064
:020000040000fa
:0401a000fa01000060
:020000040000fa
:0401a400fa0100005c
:020000040000fa
:0401a800fa01000058
:020000040000fa
:0401ac00fa01000054
:020000040000fa
:0401b000fa01000050
:020000040000fa
:0401b400fa0100004c
:020000040000fa
:0401b800fa01000048
:020000040000fa
:0401bc00fa01000044
:020000040000fa
:0401c000fa01000040
:020000040000fa
:0401c400fa0100003c
:020000040000fa
:0401c800fa01000038
:020000040000fa
:0401cc00fa01000034
:020000040000fa
:0401d000fa01000030
:020000040000fa
:0401d400fa0100002c
:020000040000fa
:0401d800fa01000028
:020000040000fa
:10020000cf8f20000eff20000e01880000000000ac
:10021000000020000000e000020032000001200089
:100220002002880014000700740007000000e000ae
:1002300003003a0080762100010020000200370010
:100240000000200001002000810f7000010032003a
:1002500014000700000020000000e000020032004f
:100260000000020000000000341302000000000043
:100270000040da000000fe004440a9000003200016
:100280000000e0000300320000002000a001880010
:100290004440a800000006008a1f78008b1f7800e9
:1002a0000000060091018800800478000000eb0047
:1002b0001a003700e284440032a0b4009905ba0065
:1002c000e284440032a0b4009906ba00e2844400fb
:1002d00032a0b4000006eb00476fde00fd07b2005d
:1002e000636ce10003003a00ebff07000000eb0045
:1002f0000a003700606ce10004003a00005deb008a
:100300008b05e900fdff3e00040037006168e10055
:10031000010032000086eb000b00070019c7ba008d
:100320001905ba000e04e00003003a000a00e000dc
:10033000e0ff3a0000000600fe07b2009e018800c0
:100340008a047800f5ff3700395dba008b05e900b3
:100350000c003200295dba008b05e900080032006c
:100360000c00e00003003a00e284440032a0b40034
:10037000f5ff370019ddba008b05e900faff3a00f6
:100380008904e800e184440032a0b40000000600c3
:1003900000000000000000003600f800809fbe0052
:1003a000829fbe00849fbe00869fbe003400f8007e
:1003b00000002000a00188000200fa008700a900c8
:1003c000e0108000000f78009e0078004080200040
:1003d000660a07000080fa003400f9004f03be00ef
:1003e0004f02be004f01be004f00be003600f900b4
:1003f000004006000040da000000fe00000005009a
:10040000889fbe008a9fbe008c1f7800970007005f
:100410009e00330003866c006450e1002e00320021
:100420006420e100330032006150e1002f0032000f
:100430006120e1003100320085855500eb07b000f6
:1004400009002000080420000500370008044400cb
:1004500089844c000a0031000603430087834b0067
:100460000001530081815b00f8ff33000203be00ee
:100470000800a0000804440089844c00f6ff3900fd
:10048000c639dd0083017300010032001300200033
:100490008904d1000884d3000998a3000500320024
:1004a0000800a7000300a0008904d1000884d3003d
:1004b0008b05e8008904d1000884d3000001eb001b
:1004c0000281d2002e00070001f0a1000cf0a7006d
:1004d00001f0a000760037006420e10078003200cf
:1004e0000801be000200be00f7ff37006120e100f6
:1004f000730032006000b800f3ff370000002000f6
:1005000001f82700f0ff37000001be00420007009d
:100510000470a70003f0a10003f8a30013003a0041
:100520006509b10010003200090035006928e100ba
:100530000200350001002800000005000000400016
:10054000818048008502e900fcff3a0000000600b7
:10055000f88f4200050035008100d1000080d300f3
:100560008502e800fcff3a00000006008000eb0076
:10057000000005004f89de00820178008700370007
:1005800081002000618055000b003d000b00200021
:1005900061fe2f000100e1001d0034008281710026
:1005a000610164008904d1000884d3000000e800e0
:1005b000faff3a007100200061006400030070003f
:1005c000020060000900320061044400e0844c0035
:1005d0000988a500050032008b05e8006808e100e5
:1005e00002003a008904d1000884d300f20f2000f1
:1005f0000258e10005003d00c75ddd00f907b200cb
:100600008980750008007800000006000bf82700bc
:100610008b00780000000500c70ade00f107b20079
:10062000f50fb20008003200e1cf420002003200b4
:100630000170a00024000500810f7000010032004d
:100640000408050044000500810f700002003a0014
:10065000140005008502e9000000400081c0480048
:10066000fcff3b000170a000240005000004be0058
:10067000e9ff07000003be000405be000200be0043
:10068000e5ff0700844f7500000006000200be0071
:100690006450e100050036006420e10002003600ed
:1006a0000968a30001003a000800be000160a00034
:1006b0004f0678004f05be004f04be000000060044
:1006c000f0ff2f00f1ff2700f9ff3700889fbe00e1
:1006d0008a9fbe008c1f7800e4ff0700ebff330009
:1006e00003866c006450e100240032006420e100c5
:1006f000270032006150e100220032006120e10059
:10070000210032008b854200eb07b1000134b800b4
:10071000003ab8000804420089844a00013ab8004f
:100720000030b8008880400009014a00040033000e
:100730000000400081804800020149008b05e9006b
:10074000c909dd00830170000100320013002000a0
:10075000c814de004814dd004709de001200b200b4
:10076000c808de000884700085ff070001f0a100c2
:100770000cf0a70001f0a000cdff37006120e100e0
:10078000cfff32000801be000200be00f7ff3700b5
:100790006150e100fcff3a00c9ff3700881f780074
:1007a000030478000300e00007003d006000100033
:1007b000e080180060011900e081190002003b0090
:1007c00001f02d00030037000400070008f0a70027
:1007d00001f0a0004f04780000000600889fbe00d2
:1007e0008a9fbe00008270000402710004827100c2
:1007f000260032000004be000200be006011b800f6
:100800006b092000950220000182cf000a00390008
:100810000541b1000082cf00070039000541b10059
:100820000982cf00040039000541b1000882cf00e1
:10083000010039000541b1000542520012003200aa
:100840000a003b0082817100610164008100d100d7
:100850000080d3008984d3000884d3008b05e8008e
:100860000442e800f7ff3a0007003700080444009c
:1008700089844c0000004800818048008b05e90015
:100880000442e900f9ff3a003dff07004f05be00b2
:100890004f04be0000000600020037000204e00022
:1008a0000b003200810178000002780030417800ae
:1008b000b14f5100f9ff32001000200014427800bf
:1008c000934f5200030031000080eb00000006004f
:1008d0000000eb00000006008000780001017800b5
:1008e0003104e000fdff3a00000051000000060066
:1008f000900178000200e00002003a000308e900dd
:10090000050037008080eb001304e0000200320095
:100910000308e8009300fb000100780000000600d7
:100920000200fa00f0bf9f00ea8157003fb997002c
:100930008f80e90080472000020007000080fa0055
:10094000000006001200fa00889fbe008a9fbe00c9
:100950008c1f780002047800a0b79f00b1b79f00f9
:100960008300780078805700d20007000000eb0079
:10097000e0b79f00d8b79f00000478005fb69700eb
:100980009c85fb008b04fb008b05ea00cf5dde003d
:1009900009007800b30007000000e0001b003200ef
:1009a0006fb097000000e800e0b79f001200200041
:1009b0008000eb003fb09700afb19700030001004b
:1009c000000578000a007800a60007000000e0009b
:1009d000f3ff3a006fb09700e10f450008003200c6
:1009e0000000e900e0b79f000001eb008a007800fa
:1009f0003fb09700afb1970003000100220037001d
:100a00000000e900e0b79f001f00370050022000ff
:100a1000808f540002003a000b05e90018003700ef
:100a20000b057800160037006fb097000000e80053
:100a3000e0b79f00120020008000eb003fb097005d
:100a4000afb1970003000100bc00fb00810f500014
:100a50000b003200e10f40007c003200efb0970045
:100a60008100e900e1b79f000001eb008000780001
:100a70003fb09700afb1970003000100730037004b
:100a80000a05e900e8ff3b005fb097008b054000d6
:100a9000dbb79f0050022000808f5400030032001b
:100aa0000900e000b5ff3a00680037009b4078007d
:100ab0000040eb00a2c2b30082cf500003003a0016
:100ac0008b05e800dbb79f0001407800a0f79f008e
:100ad0000000eb0080bf9f000b0037000fb89700ad
:100ae000f2ff2700820f5000050032006a01b900b2
:100af00000fd2f00020040000100400080bf9f0069
:100b00000a05e800dab79f005fb597009a447800bd
:100b10008900fb0000fd2f0001004000e90f50009c
:100b2000eeff3600c08e2000560007000000e000f7
:100b3000030032000a05e800dab79f000100370021
:100b40008044eb00b9f79f005fb0970081c6b30007
:100b500081cf540004003a0090cf14000b003a00fb
:100b6000e6c0500006003700c1c6b30081cf540074
:100b700006003a0090cf140004003a00e5c040009f
:100b8000b1f79f000000e800d0b79f005fb097006a
:100b90009000fb00308f20003a0007000000e000ca
:100ba0001a003a006fb097000000e800e0b79f001d
:100bb000120020008000eb003fb09700afb197001b
:100bc0000300010080047800090078002500070078
:100bd0000000e000f3ff3a006fb09700e18f44009f
:100be000080032000000e900e0b79f000001eb00c0
:100bf000890078003fb09700afb197000300010073
:100c0000020037000000e900e0b79f007c80570039
:100c10002a0007000000e00003003c000800e0009c
:100c20000a003a00080037004ff097000004e00087
:100c3000010032000804e8005fb097000000e800ff
:100c4000d0b79f004dff37000004780008007800ff
:100c50004f0678004f05be004f04be000080fa002a
:100c6000000006006900e100040035006d00e100ad
:100c7000030034000002b100010032000000050052
:100c800010000500020037000304e00006003200f7
:100c90000001780002007800b041780081cf510057
:100ca000f9ff3a00010037000001eb000200780074
:100cb000000006000108780000000600881f780088
:100cc000000478000040eb000054980038009000c9
:100cd0001040780091c6b300814f500022003200ce
:100ce0000e003c00eec05000814f500088003200e2
:100cf00005003c0051c2b300814f50006900320032
:100d000081c5b3001300370031c6b300814f5000d6
:100d1000130032008140e8000e00370001c7b30025
:100d2000814f500007003c008140e900814f500096
:100d30000d003d008140e900814f500078003a00ed
:100d40000c00370051c7b300814f5000060032003d
:100d5000e3c04000814f500071003a0002003700ac
:100d60008000eb006b003700080078006f00070080
:100d70006c003700e8489000100020000104e000fb
:100d800068003a00f8489000c3c6b30028019000fc
:100d900083cf5000340032000a003c00e4c151000f
:100da00083cf50002a003200a0c6b30080cf50008d
:100db0001a0032006840500080cf500031003a00e5
:100dc0000a00370043c7b30083cf50002000320031
:100dd000a0c7b30080cf5000190032006940500016
:100de00080cf500027003a0007003700280090000d
:100df0000080e9002004980010007800084c900062
:100e00000848780025003700280090000080e9009d
:100e10002004980010007800030037000281e900e8
:100e2000220498001200780048029000cfa2de0051
:100e3000612bb9000498be000690be001700370071
:100e40000281e900220498001200780011003700a6
:100e50000281e90022049800920078004804900082
:100e6000880878002f0037000281e90022049800ea
:100e70009200780048019000cf91de008288be0089
:100e800028003700280090000080e9002004980026
:100e90001000780048049000080878001000200036
:100ea00020003700480090000000e800400498004f
:100eb00098017800120020008000eb0018009000dc
:100ec0000300010080007800100020005202200082
:100ed000828f50001300320048009000e18f4000e4
:100ee000070032000000e9004004980098017800f3
:100ef0000001eb001800900003000100080037001b
:100f00000000e90040049800010078000500370067
:100f10008080eb00080078007f01070001003700a7
:100f20000000eb004f047800000006002f02b00024
:100f3000889fbe008a9fbe008c1f78008e1f78009d
:100f400000047800680090000000e00001003c0010
:100f5000f0ff27000000e9005004980048009000ce
:100f60000000e8004004980098017800120020007a
:100f70008000eb00180090000300010000057800dd
:100f8000b0022000800f5500030032000080e8000e
:100f9000800f550015003a00cad79f00d800900076
:100fa0008100e900510498004800900009003300d6
:100fb0000000e8004004980098017800120020002a
:100fc0008000eb001800900003000100000578008d
:100fd000030037000000e800400498000085eb00a3
:100fe0005efd2f000f074700020037004efd2f0067
:100ff0000f074700380090009000fb00d08c2000c5
:1010000020ff0700d18c200001005000618c2000df
:10101000e14578008b05fb0000032000800f5500a0
:1010200033003a00d80090008100e9005104980094
:10103000480090000c0033000000e80040049800d5
:1010400098017800120020008000eb00180090004a
:10105000030001000005780080072000800f550084
:1010600008003200040037000000e8004004980047
:101070000085eb001b00370080052000800f550025
:1010800018003a000b00e00002003200f08f55001b
:1010900002013a00d80090008100e9005104980054
:1010a00048009000090033000000e8004004980068
:1010b00098017800120020008000eb0018009000da
:1010c0000300010000057800030037000000e8007d
:1010d000400498000085eb000b0120000046eb0067
:1010e0000d0037000b00e000e9003200eb00370094
:1010f0000046eb00a90020000b00e0001a003200bf
:10110000ea8f550002003200e88f550002003a00d5
:101110008b047800140037006901200012003700aa
:10112000d80090008100e900510498004800900028
:10113000090033000000e80040049800980178009e
:10114000120020008000eb00180090000300010056
:1011500000057800030037000000e8004004980014
:101160000085eb001cc0b30000032000800f550079
:10117000ebff32000c04e00018003200005f780042
:10118000160037006d805700800f570001003100b6
:101190000a5f7800d80090008100e90051049800af
:1011a00048009000090033000000e8004004980067
:1011b00098017800120020008000eb0018009000d9
:1011c0000300010000057800030037000000e8007c
:1011d000400498000085eb001cc0b300e10f4500ff
:1011e0000f003200090178008a007800508d20003d
:1011f000ed0207000000e000e2ff3a004800900026
:101200000000e90040049800980178000001eb001c
:101210008a007800180090000300010003003700e6
:10122000480090000000e900400498000c04e00031
:1012300008003a008004eb0040fd2f000f00400042
:10124000800f57008b003a00e10f450089003a00fb
:1012500087003700004feb0068489000190020001d
:101260000004e00083003a0038009000104078004d
:1012700041c6b300814f500003003200e5c040007a
:10128000814f500035003a000b0178008000eb00e0
:1012900040fd2f000f0040009601070014c0b3006e
:1012a00004549800784a9000c6c6b300a802900083
:1012b000864f5200240032000a003c006443530071
:1012c000864f52001c00320006c3e800864f5200d1
:1012d0001200320068435300864f52005e003a000d
:1012e0000a00370046c7b300864f52001200320092
:1012f00066434300864f52000f003200694353009b
:10130000864f520054003a00040037008582e900fd
:101310002504980015027800380037008582e9001e
:101320002504980015027800009abe000292be00c3
:10133000190020004f0037008582e900250498003d
:1013400015027800480037008582e90025049800de
:1013500015027800008abe00f5ff37000b01780007
:101360008000eb0040fd2f000f004000b901070096
:101370000954980038039000a802900004c7b300f5
:10138000964f12002a003200784a9000c6c6b30079
:10139000864f52002b0032000a003c006443530089
:1013a000864f52002200320006c3e800864f5200ea
:1013b0001900320025c6b300854f520026003a00be
:1013c0000a00370046c7b300864f520018003200ab
:1013d00066434300864f52001500320015c7b30024
:1013e000854f52001c003a0006003700280290008a
:1013f0000482e9002404980014027800004a78006e
:10140000cbff3700280290000482e90024049800f2
:1014100014027800c4ff37008582e9002504980093
:1014200015027800009abe000292be00110037003b
:101430008582e9002504980015027800000a7800ea
:101440000c0037008582e900250498001502780019
:10145000008abe0007003700280290000482e900dd
:101460002404980014027800000a7800b0ff3700c6
:101470008a047800090078004f0778004f0678004a
:101480004f05be004f04be002f02b1000000060051
:101490008b0020001cc0b3001dff37001cc0b30030
:1014a00017ff3700110037008001780010427800e4
:1014b000d5c2b300d3cf120008003a00814f5200ca
:1014c00003003e00a041900083cf50001000360082
:1014d000e30140006301510003003700814f5200d7
:1014e0000b0032000201e90003007800e20f510016
:1014f000edff3e0003003700b0cf100005003200c2
:101500000201e9000200e000fbff3a0000000500d4
:101510001000050010000500f0874700889fbe00fe
:101520008a9fbe008c9fbe008e1f78000004be0004
:10153000f84d90000046eb000900e00025003d005a
:10154000380090000000e8003004980090407800d7
:10155000ccef9f00e2c5b30082cf500003003a00f9
:101560000000e80030049800c1ef9f00b80690002a
:10157000d0c5b3009d4f100002003a000d00e800f6
:10158000010037000d007800d1052000bdfd0700e7
:10159000c0b79f000000eb00cfb097000100e00053
:1015a000ca0032000d8550000046eb00e20f5500e6
:1015b000080034000a81e9000d00e800d102200093
:1015c000f90107001cc0b3000000e00001003a0070
:1015d0000046eb00680090000000e00004003c00c2
:1015e000100020000900e00001003200f0ff270099
:1015f000cbc6b2008b85fb008b05e900cf5dde001a
:1016000050049800684890000004e0000c003a0084
:10161000280090000b00e000050032000080e90087
:101620002004980010007800b0b79f000400370035
:101630000080e9002004980010007800d0b79f00d7
:101640000047eb00fbb79f00890578006600370074
:101650000b00e000030034000d00780081fd07005e
:101660001f0037000b00e0001f0032000c04e000f8
:101670000d003a004fe997000204e00005003a002f
:101680000a0178008d00780038009000c60107003c
:101690000c0037000a0178008d00780038009000b7
:1016a000c10107000e0037004fe897000004e0007a
:1016b00007003a000a0178008d0078003800900099
:1016c00078ff07000000e00007003a005d003700e7
:1016d0000a0178008d0078003800900071ff070043
:1016e0000000e00057003a00ffb097000100e00062
:1016f00009003a00684890000004e00039003a0010
:101700005fb197000d597800d2b79f0010c0b300a9
:101710000054980033003700cde79f008d06fb0092
:101720008d04780009f0a7008904ea008904ea0022
:10173000cf4cde0005003a000d00e00003003a0047
:101740007c80570064fc07008004e8007b8257001f
:101750001e0020008b0278008a05780009057800b9
:1017600084047800100037000e07e900c900fb0070
:1017700048009000e18f4000090032000000e900bd
:1017800040049800980178000001eb0018009000d8
:1017900085bf9f00030001008fba97000200370049
:1017a0000000e900400498008e0f5500eeff350060
:1017b0000b05780085057800684890000004e0007b
:1017c00005003a003fb097000d187800b0b79f00b1
:1017d00010c0b30000549800680090000000e900b9
:1017e000600498002ec0b300d80090008100e9008a
:1017f00051049800480090000d0033000000e800fc
:101800004004980098017800120020008000eb004e
:10181000180090000300010080067800e18f460068
:101820008bff3a008b047800ffb597002d0037003e
:101830008b047800ffb597000000e8004004980092
:10184000280037008b047800ffb59700480090000f
:101850000000e90040049800980178000001eb00c6
:101860008d00780018009000030001000900e000de
:1018700002003200e24f5700050032000080eb000a
:101880000e04e00011003200100020000f003700ad
:10189000684890000004e00007003a000b00e000f8
:1018a00003003200bfb097008008eb000200370051
:1018b0005fb197000b497800100020000900e0009c
:1018c00002003d00cfb09700310498004f07780028
:1018d0004f06be004f05be004f04be000f01b10011
:1018e00000000600480090000000e9004004980055
:1018f000deff3700e4874700889fbe008a9fbe0056
:101900008c1f78008e1f7800000578000107780092
:10191000020678000e00e00001003a006e875700d2
:101920008a0578008b047800890578003b447800ac
:101930000800fb00cbfc07000000e000f9ff3a00c4
:10194000d0c2b300804f54000300320000c0e90051
:10195000804f540002003a008904e800010037007b
:10196000004478000c0178008e00780009007800af
:10197000380007009e8f540001003a000a0f7800db
:101980009e0f550005003a00e00f5000e08f580010
:10199000e00f5900e08f590014003a00b4c2b300c0
:1019a000844f540006003a00e00f5000e08f5800ca
:1019b000e00f5900e08f590020003d000b00370078
:1019c000d4c2b300844f54001c003a006022b80017
:1019d00006002000070028000400e1000588e1005f
:1019e0000690e1000798e10009003600200220007f
:1019f000c04788006b404000804f54000b003a0005
:101a00006000b80002002000030028000b0037002f
:101a10006022b8006033b8000000520081805a0094
:101a200002015b0083815b0004003700f0ff2f00a0
:101a3000f1ff2f00f2ff2f00f3ff27004f07780080
:101a40004f0678004f05be004f04be004f00b100a6
:101a5000000006000f02b000889fbe008a9fbe00f3
:101a60008c9fbe008e1f780080b79f000107780012
:101a70008206780000047800080678000c047800dc
:101a800038407800e0e79f00804078000100fb00cc
:101a900074fc07000000e000f7ff3a00d0c2b3007a
:101aa0006fe19700804f51000300320000c0e90051
:101ab000804f510002003a000c06e8000100370098
:101ac000e0e79f000d00e00005003500e18f5600c3
:101ad0000300320040022000808f560007003400cf
:101ae0006044b8006055b8000e00e0009900320074
:101af0000fb29700040f78005d0037000d00e00082
:101b00000e003200f08f56001a003a0000c3b300f6
:101b10009c4f100017003a001c40900081c7b30092
:101b2000814f50000300320081c5b300814f500047
:101b300010003a000c86e8000e003700ad002000cf
:101b400000c3b3009c4f10000a003a001c409000f4
:101b500081c7b300814f5000040032008d00200087
:101b600081c5b300814f500002003a000c86e800a6
:101b70000d0120000c007800800078000100780042
:101b800002c3b300b04f1100fbff3200e1af9f0072
:101b90008102780095b79f006044b8006055b80096
:101ba0008cbf9f001c003700c1872000814050007f
:101bb000e1df9f00616ab900612bb9000800be0037
:101bc0000a01be0084010700efda97000502fb005e
:101bd000cfa2de00612bb900c4b79f00d5b79f002c
:101be000e6b79f00f7b79f00a8af9f00b9af9f006f
:101bf000caaf9f00dbaf9f004fb29700dfb29700e4
:101c00006fb39700ffb397000004420081844a003d
:101c100002054b0083854b009fb29700a5b79f003c
:101c2000050378003600fb0096b79f0051000700bf
:101c30000d01780080007800c08720005a0007005e
:101c40000000e000d8ff3a000fbe9700afb3970046
:101c5000870f560009003a006044b8006055b8008c
:101c60000e00e0003b0032000fb697000c0f78002a
:101c70006044b8006055b800360037002fb09700b8
:101c80006fa9970082005000108a200060c07e007b
:101c90000000fb00008050002000330019003a00d3
:101ca0006fda97000400fb00cf80de006109b90005
:101cb0000000540081805c0002015d0083815d00b2
:101cc0000040e10001c8e10002d0e10003d8e100da
:101cd0000c003900616ab900612bb900d50007001a
:101ce0002faa9700bfaa97004fab9700dfab9700d2
:101cf0000400e1000588e1000690e1000798e1009a
:101d00000600320020022000c0478800f8ff2f00a4
:101d1000f9ff2f000805be000a003700d0c2b3004b
:101d2000efe2970080cf520006003a006000b80052
:101d30006011b80008045000898458000a05590051
:101d40008b8559000e00e000020032002fb397008f
:101d5000060f78000800be000a01be004f07780099
:101d60004f06be004f05be004f04be000f02b1007b
:101d700000000600800078001104b1000300350067
:101d80009101b10001003c000050a00000000600dd
:101d9000d04780000000e000010032000000010098
:101da000808f20000000060003003700b0cf100035
:101db000050032000201e900800178000200e00025
:101dc000faff3a000000050003007800000006005a
:101dd000889fbe008a9fbe0030044200b0844a0043
:101de00030054b0090854b006000b1000898be00a4
:101df0000a90be000440e10005c8e10006d0e10001
:101e000007d8e10002003100680040001008e80037
:101e10004f05be004f04be0000000600889fbe00b4
:101e20008a9fbe003004be002005be000418540086
:101e300005985c0006185d0007985d001100200001
:101e40000440e10005c8e10006d0e10007d8e10048
:101e5000010039008000eb00108810004f05be0023
:101e60004f04be00000006001200fa00889fbe006a
:101e70008a9fbe008c9fbe00e0b79f00f1b79f0015
:101e800082bf9f0093bf9f000605be000404be00f2
:101e90000000eb00d0b79f00c0b79f00b0b79f0015
:101ea000a0b79f0090b79f00000678005fb1970031
:101eb000cfb09700820141003fb097000200e000e0
:101ec00004003d00370007007e805700c0ff070078
:101ed00003003700330007007e805700cfff070064
:101ee000dfb697000d00e0000c0035006fb29700e0
:101ef000ffb297000fbb97009fbb97001000200018
:101f0000010020006011b80000027200818272009e
:101f100002037300838373001b0007000c06e800b4
:101f200001042000810f5600e0ff3a000d00e000a0
:101f300004003d000802be000a03be007e80570078
:101f4000a3ff07005fa897000000e00005003a002b
:101f50001fb29700afb297003fb39700cfb397007f
:101f6000090007006fb09700ffb097000fb9970006
:101f70009fb997004f06be004f05be004f04be003c
:101f80000080fa00000006000100070000000600c3
:101f9000a4b79f00b5b79f00c6b79f00d7b79f00f3
:101fa000000006004f09de0082817100b3b79f0078
:101fb0004f01de008180400082807000a1b79f0049
:101fc0008fb097004f09de00000040000200700053
:101fd00090b79f007fa897004f01de0081804000ee
:101fe0008280700081b79f000d0007004f3ade002d
:101ff0000000400004007000f0af9f0008000700e0
:102000000402420085824a0006034b0087834b008e
:10201000dfff07000802be000a03be000000060042
:102020002fb29700bfb297004fb39700dfb397006e
:1020300000000600881f780018002000881f780024
:1020400089ff07008f87e9004f0478000000060031
:10205000801feb0084ff07008f87e9000000060067
:10206000889fbe008a9fbe00e00f5000e08f58009e
:10207000e00f5900e08f59000c003d006044b800ab
:102080006055b8000000540081805c0002015d00d2
:1020900083815d00180020001500070008003d0046
:1020a000180007000004eb00050037000004eb00f7
:1020b0000f00070002003d0012000700180020007a
:1020c000dcff07000800e000060032006022b800d4
:1020d0006033b8000000520081805a0002015b00aa
:1020e00083815b004f05be004f04be000000060068
:1020f000e00f5200e08f5a00e00f5b00e08f5b00c2
:10210000000006006044b8006055b80004025400a6
:1021100085825c0006035d0087835d000000060089
:10212000889fbe008a9fbe008c1f7800e00f500081
:10213000e08f5800e00f5900e08f59000d003d007e
:102140006044b8006055b8000000540081805c0015
:1021500002015d0083815d001c0020000820e10079
:1021600009a8e1000ab0e1000bb8e1000d003d0054
:10217000080037000006eb00e00f5200e08f5a0025
:10218000e00f5b00e08f5b0006003d006044b8009c
:102190006055b8000402540085825c0006035d00af
:1021a00087835d00aaff07000c00e00006003200f4
:1021b0006022b8006033b8000000520081805a00ed
:1021c00002015b0083815b004f0678004f05be0073
:1021d0004f04be0000000600889fbe008a9fbe001c
:1021e0008c1f78000006eb00e00f5000e08f5800d5
:1021f000e00f5900e08f590007003d006044b8002f
:102200006055b8000000540081805c0002015d0050
:1022100083815d001c002000e00f5200e08f5a0017
:10222000e00f5b00e08f5b0007003d006044b800fa
:102230006055b8000402540085825c0006035d000e
:1022400087835d000c00a2000c0007000c00e0007a
:10225000060032006022b8006033b800000052006f
:1022600081805a0002015b0083815b004f06780089
:102270004f05be004f04be0000000600889fbe0050
:102280008a9fbe008c9fbe000404b8000506b800fb
:102290008904460060854e000606b8000a0546001f
:1022a000e0854e000706b8008b054600040eb80016
:1022b000890446000a854e00e0854d00050eb800f1
:1022c0000a0546008b854e00060eb8008b054600b9
:1022d0000416b8000a0546008b854e000516b800a6
:1022e0008b054600041eb8008b0546000800be00a2
:1022f0000a01be004f06be004f05be004f04be00df
:0423000000000600d3
:020000040000fa
:10230400484c0000454e000041000000484c0000cd
:102314005245000046000000256400002c25000002
:1023240064000000484c00005341000054000000c9
:102334004d430000414300004b2c00005245000077
:10234400462c0000310000004d43000041430000d2
:102354004b2c000052450000462c000030000000c9
:020000040000fa
:102364000400fa00000f7800110798001e00900086
:10237400100078009e0f500003003d001e009000e6
:10238400100f7800070037001e0090001000900026
:102394009e0f5000030034001e0090009000900037
:1023a400010f78001e0078000080fa00000006008b
:1023b4000600fa00000f7800110798002207980021
:1023c4001e0090009e0f5000160034009e009000e6
:1023d400000c2e00808f500012003d00100c2e00c7
:1023e4009e007800808f50000e0035001e00900083
:1023f4000000e0000b0035001e0078000000e00043
:1024040008003c002e0090009e0078001100980007
:102414002e0090009e009000010878000000eb0060
:10242400010037000080eb000080fa000000060085
:102434000e00fa00400798005107980062079800c0
:102444000000eb00000f78000000eb00100798007c
:102454000000eb00200798000000eb003007980014
:1024640000408000e10f500005003200e20f5000f0
:10247400050032000000e0000a003200400037008e
:102484000028ef003e003700211829004e0090007c
:1024940000f907000000e00036003a000028ef00d1
:1024a40037003700811829004e009000f9f8070022
:1024b4000000e00016003a000e80e800801f78005b
:1024c4008e1f7800e0182900801f78005e009000bd
:1024d40012f90700e68757001e007800ee0090000e
:1024e4009fff0700000f78001e009000ee00900090
:1024f4009bff0700100798009e0078006e00900074
:10250400210098009e0090006e0090003100980019
:10251400411929004e009000def807000000e00099
:1025240016003a0064004700801f780066004700e8
:10253400801f7800e0182900801f78005e0090005a
:10254400f6f80700e6875700ae0090003e009000c2
:102554006e01900096ff07000000e00002003a00c0
:10256400a0192900a7020700601a2900a502070084
:1025740003003700000000000100370000000000e5
:102584000080fa00000006000200fa00000f780044
:102594000080fa00000006000200fa00000f780034
:1025a4000080fa00000006000200fa00000f780024
:1025b4000080fa00000006000200fa00000f780014
:1025c4000080fa00000006000200fa00000f780004
:1025d4000080fa00000006000200fa00000f7800f4
:1025e4000080fa00000006000c00fa005007980072
:1025f400de009000010f78000000eb004007980017
:1026040012003700680047008000780040802000f6
:10261400f0010700100798004e0090004047980012
:10262400ce409000c080200046010700300798008b
:102634003e009000e10f500004003a001e017800b3
:1026440041812000e080200079ff070040802000c5
:10265400060207000000e000eaff3c000080fa00e8
:10266400000006000800fa003100200020002000cd
:10267400e7000700b9020700200020004d02070010
:10268400c602a900c622a9000000eb00200798009a
:102694000000eb003007980000f42100000f7800e0
:1026a400000c2e00100798004106200040802000f6
:1026b4009f01070010002000104088000028ef0050
:1026c4000000eb000080fa00000006000800fa0099
:1026d40020079800310798003e009000cf80de006c
:1026e400a3f7070002002000a347240043f70700d4
:1026f400008fbe002e009000e10f50000300320056
:10270400e20f50001b0032003500370005e1a9003c
:102714000021ef000421a90021088000000320000b
:10272400010070002008880002002000139e24008d
:102734001e00be00e4f70700020020000338240056
:102744002ef707006ff707000000780010088800d4
:1027540005e1a8000000000020048000680060007b
:102764000000e000fcff32008460a90005e1a9003c
:102774001b00370011e1a9000621ef001021a90078
:102784008108800000032000010070008008880098
:1027940002002000139e24001e00be00caf707009a
:1027a400020020000338240014f7070055f707003f
:1027b400000078006008880011e1a8000000000013
:1027c4002104800000042000008060000000e0007c
:1027d400fbff320084c0a90011e1a9000000000041
:1027e4000080fa00000006000800fa0020079800a4
:1027f400310798003e009000cf80de005cf70700b0
:1028040002002000a3472400fcf60700008fbe004e
:102814002e009000e10f500003003200e20f500040
:10282400150032002800370005e1a9000021ef005f
:102834000421a90021088000f0fc2f000080600022
:102844000050a0002008880002002000139e2400ed
:102854001e00be009cf7070002002000032824008d
:10286400e6f6070027f70700000078001008880044
:1028740005e1a8001400370011e1a9000621ef00ca
:102884000421a90081088000f0fc2f000080600072
:102894000050a0008008880002002000139e24003d
:1028a4001e00be0088f70700020020000328240051
:1028b400d2f6070013f707000000780060088800cc
:1028c40011e1a800000000000080fa0000000600ea
:1028d4000200fa00000f78001e007800e10f50009b
:1028e40003003200e20f5000080032000f003700ee
:1028f4000000000020048000680060000000e00088
:10290400fcff32008460a9000800370000000000ca
:102914002104800000042000008060000000e0002a
:10292400fbff320084c0a900000000000080fa0010
:10293400000006000200fa00000f78002115800054
:1029440000fc2f00008060000030a00020158800eb
:10295400a042a80021158000f00f2e000080600026
:102964000080a0002015880001158000000e2000c2
:10297400010070000015880011158000f0cf2f00b1
:1029840000806000101588001e007800e20f5000df
:102994000b003200e30f500010003200e10f500032
:1029a40015003a003115800000ff2f000080600000
:1029b4000000a00030158800a822a9000e003700ee
:1029c4003115800000ff2f00008060000010a0007f
:1029d40030158800a842a90007003700311580008f
:1029e40000ff2f00008060003000b3003015880025
:1029f400a862a90000000000a682a9000080eb00e4
:102a040040158800a1e2a8000080fa00000006003a
:102a14000400fa00000f78001107980021158000c7
:102a240000fc2f00008060000030a000201588000a
:102a3400a042a80021158000f00f2e000080600045
:102a44000080a0002015880001158000000e2000e1
:102a5400010070000015880011158000f0cf2f00d0
:102a6400008060000080a000101588001e0078001f
:102a7400e20f50000b003200e30f50001000320050
:102a8400e10f500015003a003115800000ff2f00bf
:102a9400008060000000a00030158800a822a90072
:102aa4000e0037003115800000ff2f000080600009
:102ab4000010a00030158800a842a90007003700c4
:102ac4003115800000ff2f00008060003000b3004b
:102ad40030158800a862a90000000000a682a900a1
:102ae4001e009000e20f500007003200e30f500078
:102af40008003200e10f500009003a00a6a2a80025
:102b0400a822a90006003700a6a2a900a842a9008d
:102b140003003700a6a2a800a862a90000000000d4
:102b240031158000f0f32f0000806000301588001c
:102b34000080eb0040158800a1e2a8000080fa00a4
:102b4400000006000400fa00000f780021479800f6
:102b54001e00780010007800e20f50000f003200d1
:102b6400e30f500047003200e10f50006d003a00bf
:102b7400ae40900040c2b30080cf500068003a00dd
:102b84001e00780021002000010878001e00780053
:102b94008000eb006130980062003700ae40900086
:102ba400c0c2b30080cf50000d003a001e00780070
:102bb40031002000010878001e0078006030900089
:102bc4009e007800008040008040eb002140980087
:102bd4001e0078008000eb0071309800510037002f
:102be4001e00780060309000e60f500007003a00a5
:102bf4001e00780011002000010878001e007800f3
:102c04008000eb006130980046003700ae40900031
:102c1400a0c2b30080cf50000e003a001e0078001e
:102c240011002000010878001e0078006030900038
:102c34009e007800008040008040eb002140980016
:102c44001e0078008040eb0001489800100020002e
:102c5400350037001e007800603090009e00780038
:102c640000804000ae409000214098001e00780093
:102c7400603090008000e8001e0078006130980009
:102c840028003700ae409000a0c2b30080cf5000af
:102c94000b003a001e0078001100200001087800a3
:102ca4001e007800703090009e0078000080400084
:102cb4008040eb0001489800100020001a00370003
:102cc4001e007800f030900040062000808f5000f5
:102cd40007003a001e007800110020000108780067
:102ce4001e0078008000eb00713098000d00370062
:102cf4001e007800703090009e0078000080400034
:102d0400ae409000014898001e007800703090009a
:102d14008000e8001e007800713098000100370040
:102d2400000000000000eb000080fa000000060034
:102d34000400fa00000f7800110798001e007800c4
:102d44009e009000310098001e0078008000eb0087
:102d5400110098001e0078008000eb00210098000c
:102d64000080fa00000006000400fa00000f78005a
:102d7400110798001e007800900078001e0078006b
:102d84002000900000004000008040009e00900061
:102d9400010878001e007800200090008000e80000
:102da4001e007800210098001e007800a00090000a
:102db4001e00780030009000808f500003003a001d
:102dc4001e0078008000eb00210098000080fa00cb
:102dd400000006000400fa00000f780011079800b4
:102de4008f00a9001e007800900090001e0078005b
:102df40020009000808f500001003a008f00a8004e
:102e04001e007800900078001e00780010009000ea
:102e14000000400000804000900078001e009000f8
:102e2400010878001e007800100090008000e8007f
:102e34001e007800110098001e0078009000900099
:102e44001e00780030009000808f500003003a008c
:102e54001e0078008000eb00110098008f00a8008d
:102e6400100020000080fa00000006000200fa00b2
:102e7400000f78001e007800a00090001e0078006b
:102e840010009000808f5000060035001e0078006e
:102e9400a00090001e0078001000900000805000f8
:102ea400080037001e007800b00090001e00780073
:102eb400200190001e0078001000900000005100d6
:0c2ec400008040000080fa0000000600c2
:020000040000fa
:102ed000000800007c00000000000000ec0800007a
:102ee0000c00000002000000686a6c00747a4c005c
:102ef000006343006e5b0000c6080000260000006f
:102f0000020000000a0008000a10100010646900a6
:102f10006f7578005870000030313200333435005e
:102f200036373800396162006364650066414200eb
:102f300043444500460000007c0800004a000000b1
:102f400002000000303132003334350036373800ab
:102f5000396162006364650066676800696a6b00d6
:102f60006c6d6e006f70710072737400757677000f
:102f700078797a0000000000412921001c1917000f
:102f80001615140013121200111111001010100068
:102f90000f0f0f000f0e0e000e0e0e000e0e0d0086
:102fa0000d0d0d000d0d0000f808000004000000dc
:082fb000000000000000000019
:020000040000fa
:102fb8000200fa00000f78001e007800e10f5000b0
:102fc80003003200e20f5000060032000a0037000a
:102fd800b0002000f010880017e2a8001942a800ed
:102fe80005003700b0002000a01088000de2a800fe
:102ff8000f42a800000000000080fa000000060050
:103008000400fa00881f780010079800c11080009b
:1030180000202000008060000000e00011003a005d
:103028000000eb00000f7800070037001e00780052
:103038009e00900000804000104078000000fb00d7
:10304800d01088001e0fe8001e0478001e009000b3
:103058001ff607000000e800800f5400f3ff390056
:103068000100370000000000c1108000002020008f
:10307800008060000000e000fbff3a001822a90071
:103088004f0478000080fa00000006000800fa00eb
:103098002007980031079800be009000110798009b
:1030a8000000eb00000f7800250037001e007800b4
:1030b8004300dd009e00900000804000a0009000ca
:1030c8008100e800210098001e0078004300dd0020
:1030d8009e00900000804000a00090001e00780034
:1030e8004300dd001e019000000041003000900008
:1030f800808f5000110035001e0078004300dd006d
:103108009e00900000804000900078001e0078002b
:103118004300dd001e0190000000410010009000f7
:10312800010001001e0078004300dd009e009000b1
:10313800008040008000eb00210098001e0fe8008e
:103148002e0090009e007800808f5000d7ff350039
:103158000080fa00000006000000fa00010e80005e
:10316800c0ff2f00008060000000a000000e880053
:10317800010e800030ff2f00008060000020a000ba
:10318800000e8800c8a1a800f03f2200200e880089
:0c319800c1e1a8000080fa000000060061
:00000001FF
