:020000040000fa
:080000000001040000000000f3
:020000040000fa
:04000800ce02000024
:020000040000fa
:04000c00ce02000020
:020000040000fa
:04001000ce0200001c
:020000040000fa
:04001400ce02000018
:020000040000fa
:04001800ce02000014
:020000040000fa
:04001c00ce02000010
:020000040000fa
:04002000ce0200000c
:020000040000fa
:04002400ce02000008
:020000040000fa
:040028002e020000a4
:020000040000fa
:04002c00ce02000000
:020000040000fa
:04003000ce020000fc
:020000040000fa
:04003400ce020000f8
:020000040000fa
:04003800ce020000f4
:020000040000fa
:04003c00ce020000f0
:020000040000fa
:04004000ce020000ec
:020000040000fa
:0400440012020000a4
:020000040000fa
:04004800ce020000e4
:020000040000fa
:04004c00ce020000e0
:020000040000fa
:04005000ce020000dc
:020000040000fa
:04005400ce020000d8
:020000040000fa
:04005800ce020000d4
:020000040000fa
:04005c00ce020000d0
:020000040000fa
:04006000ce020000cc
:020000040000fa
:04006400ce020000c8
:020000040000fa
:040068007002000022
:020000040000fa
:04006c00ce020000c0
:020000040000fa
:04007000ce020000bc
:020000040000fa
:04007400ce020000b8
:020000040000fa
:04007800ce020000b4
:020000040000fa
:04007c00ce020000b0
:020000040000fa
:04008000ce020000ac
:020000040000fa
:04008400b4020000c2
:020000040000fa
:04008800e40100008f
:020000040000fa
:04008c00ce020000a0
:020000040000fa
:04009000ce0200009c
:020000040000fa
:04009400ce02000098
:020000040000fa
:04009800ce02000094
:020000040000fa
:04009c00ce02000090
:020000040000fa
:0400a000ce0200008c
:020000040000fa
:0400a400ce02000088
:020000040000fa
:0400a800ce02000084
:020000040000fa
:0400ac00ce02000080
:020000040000fa
:0400b000ce0200007c
:020000040000fa
:0400b400ce02000078
:020000040000fa
:0400b800ce02000074
:020000040000fa
:0400bc00ce02000070
:020000040000fa
:0400c000ce0200006c
:020000040000fa
:0400c400ce02000068
:020000040000fa
:0400c800ce02000064
:020000040000fa
:0400cc00ce02000060
:020000040000fa
:0400d000ce0200005c
:020000040000fa
:0400d400ce02000058
:020000040000fa
:0400d800ce02000054
:020000040000fa
:04010800ce02000023
:020000040000fa
:04010c00ce0200001f
:020000040000fa
:04011000ce0200001b
:020000040000fa
:04011400ce02000017
:020000040000fa
:04011800ce02000013
:020000040000fa
:04011c00ce0200000f
:020000040000fa
:04012000ce0200000b
:020000040000fa
:04012400ce02000007
:020000040000fa
:040128002e020000a3
:020000040000fa
:04012c00ce020000ff
:020000040000fa
:04013000ce020000fb
:020000040000fa
:04013400ce020000f7
:020000040000fa
:04013800ce020000f3
:020000040000fa
:04013c00ce020000ef
:020000040000fa
:04014000ce020000eb
:020000040000fa
:0401440012020000a3
:020000040000fa
:04014800ce020000e3
:020000040000fa
:04014c00ce020000df
:020000040000fa
:04015000ce020000db
:020000040000fa
:04015400ce020000d7
:020000040000fa
:04015800ce020000d3
:020000040000fa
:04015c00ce020000cf
:020000040000fa
:04016000ce020000cb
:020000040000fa
:04016400ce020000c7
:020000040000fa
:040168007002000021
:020000040000fa
:04016c00ce020000bf
:020000040000fa
:04017000ce020000bb
:020000040000fa
:04017400ce020000b7
:020000040000fa
:04017800ce020000b3
:020000040000fa
:04017c00ce020000af
:020000040000fa
:04018000ce020000ab
:020000040000fa
:04018400b4020000c1
:020000040000fa
:04018800e40100008e
:020000040000fa
:04018c00ce0200009f
:020000040000fa
:04019000ce0200009b
:020000040000fa
:04019400ce02000097
:020000040000fa
:04019800ce02000093
:020000040000fa
:04019c00ce0200008f
:020000040000fa
:0401a000ce0200008b
:020000040000fa
:0401a400ce02000087
:020000040000fa
:0401a800ce02000083
:020000040000fa
:0401ac00ce0200007f
:020000040000fa
:0401b000ce0200007b
:020000040000fa
:0401b400ce02000077
:020000040000fa
:0401b800ce02000073
:020000040000fa
:0401bc00ce0200006f
:020000040000fa
:0401c000ce0200006b
:020000040000fa
:0401c400ce02000067
:020000040000fa
:0401c800ce02000063
:020000040000fa
:0401cc00ce0200005f
:020000040000fa
:0401d000ce0200005b
:020000040000fa
:0401d400ce02000057
:020000040000fa
:0401d800ce02000053
:020000040000fa
:10020000afa420000eff20000e01880000000000b7
:10021000000020000000e000020032000001200089
:100220002002880014000700530107000000e000ce
:1002300003003a0080432300010020000200370041
:100240000000200001002000810f7000010032003a
:1002500014000700000020000000e000020032004f
:100260000000020000000000a031020000000000b9
:100270000040da000000fe004440a90060092000b0
:100280000000e0000300320000002000a001880010
:100290004440a800000006008a1f78008b1f7800e9
:1002a0000000060091018800800478000000eb0047
:1002b0001a003700e284440032a0b4009905ba0065
:1002c000e284440032a0b4009906ba00e2844400fb
:1002d00032a0b4000006eb00476fde00fd07b2005d
:1002e000636ce10003003a00ebff07000000eb0045
:1002f0000a003700606ce10004003a00005deb008a
:100300008b05e900fdff3e00040037006168e10055
:10031000010032000086eb000b00070019c7ba008d
:100320001905ba000e04e00003003a000a00e000dc
:10033000e0ff3a0000000600fe07b2009e018800c0
:100340008a047800f5ff3700395dba008b05e900b3
:100350000c003200295dba008b05e900080032006c
:100360000c00e00003003a00e284440032a0b40034
:10037000f5ff370019ddba008b05e900faff3a00f6
:100380008904e800e184440032a0b40000000600c3
:10039000000000000000000000000000000000005d
:1003a000000000000000000000000000000000004d
:1003b000000000000000000000000000000000003d
:1003c00000000000000000003600f800809fbe0022
:1003d000829fbe00849fbe00869fbe003400f8004e
:1003e00000002000a00188000200fa008700a90098
:1003f000e0108000000f78009e0078004080200010
:100400000f1a07000080fa003400f9004f03be0005
:100410004f02be004f01be004f00be003600f90083
:1004200000400600801f78003400f8000000200023
:10043000a00188000000fa0084e0a9008ce0a90077
:10044000100020000040880013e1a9000080fa009d
:100450003400f9004f007800004006003600f80034
:10046000809fbe00829fbe00849fbe00869fbe000c
:100470003400f80000002000a00188000400fa0009
:100480008400a90020002000004088000000eb004c
:10049000000f78000000eb00100798009e0090000d
:1004a0001e007800d21b0700c08020009e0078004c
:1004b00021009800c08020009e009000310098002c
:1004c0000080fa003400f9004f03be004f02be0066
:1004d0004f01be004f00be003600f900004006008c
:1004e0003600f800809fbe00829fbe00849fbe0041
:1004f000869fbe003400f80000002000a0018800a4
:100500000000fa008600a900104080008000e8008a
:1005100010002800008060000000e00004003d00a2
:100520000000e900e1ff2f00008070000000e800fb
:1005300010408800210320002000200051180700ef
:100540008e00a9008cc0a8000080fa003400f900d9
:100550004f03be004f02be004f01be004f00be0061
:100560003600f900004006003400f800881f7800cb
:1005700008002000a80188004f0478000000fa005d
:1005800011e1a90084c0a9008e00a9008e00a80076
:100590000080fa003400f900004006000040da0054
:1005a0000000fe000a00fa0011002000b1bf9f0009
:1005b000c0bf9f006a805700421107004fb89700e4
:1005c0000080fa00000006000a00fa00e20f500066
:1005d00034003e0030528000e10f50000300320032
:1005e000e20f500011003a000c003700c320200039
:1005f0000300e00001003a000040da000c02e200d3
:10060000020035001422ef000de2a8000f42ab00fb
:100610000d003a000f42a8000b00370063212000b4
:100620000300e00001003a000040da001602e20098
:10063000020035001e22ef0017e2a8001942ab00ad
:1006400001003a001942a800820178000b0037002f
:100650003102fb00e10f500004003a000f22ab0012
:10066000feff3a0084108800030037001922ab0017
:10067000feff3a00d41088008301e9000300e00087
:10068000f3ff3a00e10f500003003a000f02ab0005
:10069000feff32000b0037001902ab00feff3200f4
:1006a0000800370033002000b3bf9f00c0bf9f0089
:1006b000d1bf9f00e2bf9f006a805700031107006f
:1006c0006fb99700020078000080fa000000060071
:1006d0000a00fa0051002000b1bf9f00c0bf9f0078
:1006e0006a805700fb1007005fb897000080fa008f
:1006f00000000600889fbe00800478004052800001
:100700000000e00004003a000e0007000084eb0047
:100710000000e00008003500485280000900e000b9
:100720000500320009004400060007000000e00058
:1007300001003d000084eb00080078004f04be007b
:1007400000000600800078000100e00003003a008d
:100750000000200040528800000005000080eb00ef
:1007600002002000828f500002003e0041528800ab
:100770000000eb00000006000000050003f0a200ee
:10078000889fbe008a9fbe008c1f7800170107005b
:100790001e0133006450e1004f0032006420e1008c
:1007a0005200320003826c0007003b000905d000b4
:1007b0000306d000820f54000c065d0002003900d1
:1007c0000200320089017800030678008582550016
:1007d00004003d000003fd008103fd008502ea00e6
:1007e0008b854200840f720002003b006000100005
:1007f000e08018006011b8000005eb007a28e100e5
:100800000a00390006007800c75ddd00f707b20076
:10081000878075002d003700828171000a01780001
:10082000610560008180d1000080d3008502e9006d
:10083000f9ff3b00060440008784480002003b00ab
:1008400060041400e0841c000988a3000700320043
:100850008a81710082817100610164008904d10084
:100860000884d3008b05e800170037000978a3003f
:1008700013003a000b00e000130034008b05e90080
:100880000804440089844c000a4474000978a300d9
:100890000d003a000b00e000070034008b05e90072
:1008a0000804440089844c0001003a000b00200039
:1008b0000978a300f7ff32000001eb0002003700c7
:1008c000828171000a0178008d0007000cf0a700fa
:1008d00001f0a000d60037006420e10002003a00d9
:1008e000838f6c00d60033000801be000200be00fa
:1008f000cf003700889fbe008a9fbe008c1f780003
:10090000ba000700c100330003866c006450e100a8
:100910002e0032006420e100330032006150e1001b
:100920002f0032006120e100310032008585550042
:10093000eb07b00009002000080420000500370084
:100940000804440089844c000a0031000603430077
:1009500087834b000001530081815b00f8ff330067
:100960000203be000800a0000804440089844c0073
:10097000f6ff3900c639dd00830173000100320043
:10098000130020008904d1000884d3000998a30033
:10099000050032000800a7000300a0008904d10070
:1009a0000884d3008b05e8008904d1000884d300b3
:1009b0000001eb000281d2005100070001f0a1000c
:1009c0000cf0a70001f0a000990037006420e100be
:1009d0009b0032000801be000200be00f7ff370096
:1009e0006120e100960032006000b800f3ff37009c
:1009f0000000200001f82700f0ff37000001be00d2
:100a0000650007000470a70003f0a1006509b100ac
:100a1000160032000d0035006828e10006003500a0
:100a2000f0ff2f00f1ff27000300e00013003b0060
:100a300001002800000005000000400081804800ff
:100a40008502e900fcff3a0008003700f88f4200f9
:100a500002003c008000eb00000005008100d10096
:100a60000080d3008502e800fcff3a000300e000ac
:100a700002003b0060001000e0801800000006004b
:100a80000001be00440007000470a70003f0a100ad
:100a900003f8a30013003a006509b100100032000a
:100aa000090035006928e100020035000100280036
:100ab0000000050000004000818048008502e90038
:100ac000fcff3a0000000600f88f420005003500e8
:100ad0008100d1000080d3008502e800fcff3a00cd
:100ae000000006008000eb00000005004f89de00da
:100af00082017800890037006011b8009700370044
:100b000081002000618055000b003d000b0020009b
:100b100061fe2f000100e1001d00340082817100a0
:100b2000610164008904d1000884d3000000e8005a
:100b3000faff3a00710020006100640003007000b9
:100b4000020060000900320061044400e0844c00af
:100b50000988a500050032008b05e8006808e1005f
:100b600002003a008904d1000884d300f20f20006b
:100b70000258e10005003d00c75ddd00f907b20045
:100b80008980750008007800000006000bf8270037
:100b90008b00780000000500c70ade00f107b200f4
:100ba000f50fb20008003200e1cf4200020032002f
:100bb0000170a00024000500810f700001003200c8
:100bc0000408050044000500810f700002003a008f
:100bd000140005008502e9000000400081c04800c3
:100be000fcff3b000170a000240005000004be00d3
:100bf000e9ff07000003be000405be000200be00be
:100c0000e5ff0700844f7500000006000200be00eb
:100c10006450e100050036006420e1000200360067
:100c20000968a30001003a000800be000160a000ae
:100c30004f0678004f05be004f04be0000000600be
:100c4000f0ff2f00f1ff2700f9ff3700889fbe005b
:100c50008a9fbe008c1f7800e4ff0700ebff330083
:100c600003866c006450e100240032006420e1003f
:100c7000270032006150e100220032006120e100d3
:100c8000210032008b854200eb07b1000134b8002f
:100c9000003ab8000804420089844a00013ab800ca
:100ca0000030b8008880400009014a000400330089
:100cb0000000400081804800020149008b05e900e6
:100cc000c909dd008301700001003200130020001b
:100cd000c814de004814dd004709de001200b2002f
:100ce000c808de000884700085ff070001f0a1003d
:100cf0000cf0a70001f0a000cdff37006120e1005b
:100d0000cfff32000801be000200be00f7ff37002f
:100d10006150e100fcff3a00c9ff3700881f7800ee
:100d2000030478000300e00007003d0060001000ad
:100d3000e080180060011900e081190002003b000a
:100d400001f02d00030037000400070008f0a700a1
:100d500001f0a0004f04780000000600889fbe004c
:100d60008a9fbe000082700004027100048271003c
:100d7000260032000004be000200be006011b80070
:100d80006b092000950220000182cf000a00390083
:100d90000541b1000082cf00070039000541b100d4
:100da0000982cf00040039000541b1000882cf005c
:100db000010039000541b100054252001200320025
:100dc0000a003b0082817100610164008100d10052
:100dd0000080d3008984d3000884d3008b05e80009
:100de0000442e800f7ff3a00070037000804440017
:100df00089844c0000004800818048008b05e90090
:100e00000442e900f9ff3a003dff07004f05be002c
:100e10004f04be0000000600020037000204e0009c
:100e20000b00320081017800000278003041780028
:100e3000b14f5100f9ff3200100020001442780039
:100e4000934f5200030031000080eb0000000600c9
:100e50000000eb000000060080007800010178002f
:100e60003104e000fdff3a000000510000000600e0
:100e7000900178000200e00002003a000308e90057
:100e8000050037008080eb001304e0000200320010
:100e90000308e8009300fb00010078000000060052
:100ea0000200fa00f0bf9f00ea8157003fb99700a7
:100eb0008f80e90080732000020007000080fa00a4
:100ec000000006001200fa00889fbe008a9fbe0044
:100ed0008c1f780002047800a0b79f00b1b79f0074
:100ee00083007800788057006d0807000000eb0051
:100ef000e0b79f00d8b79f00000478005fb6970066
:100f00009c85fb008b04fb008b05ea00cf5dde00b7
:100f100009007800f40507000000e0001b00320023
:100f20006fb097000000e800e0b79f0012002000bb
:100f30008000eb003fb09700afb1970003000100c5
:100f4000000578000a007800e70507000000e000cf
:100f5000f3ff3a006fb09700e10f45000800320040
:100f60000000e900e0b79f000001eb008a00780074
:100f70003fb09700afb19700030001002200370097
:100f80000000e900e0b79f001f003700500220007a
:100f9000808f540002003a000b05e900180037006a
:100fa0000b057800160037006fb097000000e800ce
:100fb000e0b79f00120020008000eb003fb09700d8
:100fc000afb1970003000100bc00fb00810f50008f
:100fd0000b003200e10f40007c003200efb09700c0
:100fe0008100e900e1b79f000001eb00800078007c
:100ff0003fb09700afb197000300010073003700c6
:101000000a05e900e8ff3b005fb097008b05400050
:10101000dbb79f0050022000808f54000300320095
:101020000900e000b5ff3a00680037009b407800f7
:101030000040eb00a2c2b30082cf500003003a0090
:101040008b05e800dbb79f0001407800a0f79f0008
:101050000000eb0080bf9f000b0037000fb8970027
:10106000f2ff2700820f5000050032006a01b9002c
:1010700000fd2f00020040000100400080bf9f00e3
:101080000a05e800dab79f005fb597009a44780038
:101090008900fb0000fd2f0001004000e90f500017
:1010a000eeff3600c0a22000be0507000000e000f1
:1010b000030032000a05e800dab79f00010037009c
:1010c0008044eb00b9f79f005fb0970081c6b30082
:1010d00081cf540004003a0090cf14000b003a0076
:1010e000e6c0500006003700c1c6b30081cf5400ef
:1010f00006003a0090cf140004003a00e5c040001a
:10110000b1f79f000000e800d0b79f005fb09700e4
:101110009000fb0030a32000a20507000000e000c3
:101120001a003a006fb097000000e800e0b79f0097
:10113000120020008000eb003fb09700afb1970095
:1011400003000100800478000900780066050700ac
:101150000000e000f3ff3a006fb09700e18f440019
:10116000080032000000e900e0b79f000001eb003a
:10117000890078003fb09700afb1970003000100ed
:10118000020037000000e900e0b79f007c805700b4
:10119000b80807000000e00003003c000800e00081
:1011a0000a003a00080037004ff097000004e00002
:1011b000010032000804e8005fb097000000e8007a
:1011c000d0b79f004dff370000047800080078007a
:1011d0004f0678004f05be004f04be000080fa00a5
:1011e00000000600889fbe00800478000203be0055
:1011f000010478006149b800898fd2008381d20050
:10120000080278000600be00340e07000880440083
:101210004f04be0000000600881f7800020478001a
:101220000801780058050700080040004f047800c6
:10123000000006000000fa00881f78000004780013
:101240006a825700bfb9970008017800218f2000fb
:10125000c0902000160007000000e00002003500ea
:101260008040eb00017478004f0478000080fa00a1
:1012700000000600889fbe00000478000203be0044
:1012800081047800080278008901780012002000ab
:101290000600be0084070700890f500001003200dd
:1012a0000004eb00080078004f04be0000000600b8
:1012b0006800fa00889fbe008a9fbe008004780004
:1012c0000104780082057800030578008400780026
:1012d00000f92f000f00400071070700d98f9f0011
:1012e000fb8f9f000000eb00a09f9f00e88f9f00f6
:1012f0009a84fb000904fb008904ea00cf4cde005d
:1013000050022000800f54000d003200e18f540085
:101310000b003a00090178008a0078007f88970066
:10132000df89970003000100f08f9f000000e000bc
:10133000950032002f9897000000e800a09f9f00c2
:101340000905450050022000800f540004003200bf
:101350000800e000e6ff3a002f9897008b00370066
:101360000000eb00809f9f00f0979f00e0979f0098
:10137000d0979f00c0979f00b0979f00070037004d
:10138000c1a02000010050000000400001a020008a
:1013900061007800cf98970001007000c09f9f0007
:1013a0000a04780008057800ba4478008900fb0038
:1013b000c0a02000fb0407000000e000f0ff3a009e
:1013c000a1c2b30081cf54000e003a008f8897006d
:1013d0000180e900808f9f0010007800b09f9f007f
:1013e0000000e00005003d000000ea00b09f9f0003
:1013f0004f9897000020a000c09f9f000804e800bd
:1014000010003700b09f9f00880078000000eb00bc
:1014100005003700f3ff2700830f50000200320061
:101420006a02b900040041000104780088007800d5
:101430003101fb000203b100e90f5100f5ff360056
:10144000b09f9f00e0c2b300984f1000020032002e
:101450000080eb0019003700a0c2b300d84f100085
:1014600007003a008f8897000180e900808f9f0075
:1014700010007800909f9f000804e80010003700db
:101480000000eb00909f9f00880078000500370067
:10149000f3ff2700830f5000020032006a02b900f8
:1014a0000400410001047800880078003101fb004d
:1014b0000203b100e90f5100f5ff3600909f9f0035
:1014c000984478008900fb00809f2000b504070045
:1014d0000000e000020032000804e80001003700cc
:1014e0008044eb00a97f9f0080c6b30080cf5400ea
:1014f00006003a0098cf140010003a0066405000f1
:10150000a07f9f000804e8000c003700c0c6b300ad
:1015100080cf540009003a0098cf140007003a0029
:1015200067404000d84f100002003a006e40500063
:101530000100370010c7b300a07f9f001801fb0017
:10154000c3fb2f008f81410001f92f008f804000e5
:1015500020f92f000f004000150007000000e000f8
:1015600009003a00c1fb2f008f80400020f92f00b6
:101570000f004000f00507000000e0000200350009
:101580000805e8005aff37000080eb004f05be0059
:101590004f04be000080fa0000000600030278003d
:1015a0008201780001017800a193200040ff3700fc
:1015b000889fbe008a1f780000047800824478006b
:1015c0000305780070c6b30080cf54001a003c00b9
:1015d00000c0e90080cf5400cd003d006d405000b8
:1015e00080cf5400770032000b003c007140500067
:1015f00080cf540035013c0000c0e90080cf54008a
:10160000c3003d0050c2b30080cf54002c01320013
:101610007c4040000500370030c6b30080cf540046
:101620001a0032001e003c0000c0e90080cf5400c8
:1016300026013a00b6003700f0c6b30080cf540050
:101640006000320007003c006640500080cf54002c
:10165000130032006540400080cf54001b013a0067
:10166000d400370050c7b30080cf5400550032007b
:101670006340400080cf54005200320002c7b300e4
:1016800082cf540011013a00ff0037001181e900b8
:101690008208780028089000127578001101370040
:1016a00008689000c2c6b300824f500007003a009d
:1016b0001101780064005100800878001000be001d
:1016c0004f89de00820178001400370012c7b30092
:1016d000824f500003003a00110278006800520067
:1016e00005003700a2c6b300824f500006003a0042
:1016f0009102780068805200800878005001be0096
:101700004000be00050037001180e9008008780025
:1017100010007800cf80de006109b900009cbe0097
:101720000294be00086a900085c6b300854f52003f
:101730000d00320025c6b300854f520004003a0068
:101740000000fb00cf80de006109b900080037000f
:1017500045c7b300854f520003003200e6c2420085
:10176000854f520004003a00cf80de006109b900c5
:10177000009cbe000294be003802be002803be00da
:1017800028089000d1c2b300e00f5200e08f5a0049
:10179000e00f5b00e08f5b0008003500b8109000a0
:1017a0000118a30002003200b1c2b30003003700e9
:1017b0000108a3005100320001c2b3000175780096
:1017c0004c00370008689000c2c6b300824f50003a
:1017d00008003a0011037800640053008008780084
:1017e0001002be006033b8000400be000601be0057
:1017f0001400370012c7b300824f500003003a00b4
:10180000910278006880520005003700a2c6b3003c
:10181000824f500006003a00110378006800530020
:10182000800878005001be004000be00050037006f
:101830001180e90080087800100078008000eb003b
:101840006011b800009cbe000294be00086a9000bf
:1018500085c6b300854f52000d00320025c6b30087
:10186000854f520004003a000080fb008000eb002e
:101870006011b8000800370045c7b300854f52001b
:1018800003003200e6c24200854f520004003a00d5
:101890008000eb006011b800009cbe000294be0006
:1018a000381090000038a300140032003800be0049
:1018b0002801be00e00f5000e08f5800e00f5900f3
:1018c000e08f59000d00320080c7b30080cf540074
:1018d0000300320080c5b30080cf540007003a00f7
:1018e0002808900001c3b300017578000000e800eb
:1018f000097578000000e800200c98002808900086
:10190000000545007a049800894078006900370096
:1019100008699000c0c4b300804f510006003a002f
:101920009103780068805300800878005001be0061
:101930004000be000500370011017800640051002e
:10194000800878001000be00540d0700009cbe0007
:101950000294be00b8009000280890000100e0004a
:1019600002003d00d1c2b30008003700b81090005b
:101970000118a30002003200b1c2b3000300370017
:101980000108a3000400320001c2b3000175780011
:101990000000e800200c9800280890000005450091
:1019a0007a0498008900fb000800780053000700c3
:1019b0004e00370008699000c3c6b3001180e900eb
:1019c000834f5100240032000a003c00e4c1510062
:1019d000834f51002700320083c1e800834f51003c
:1019e0001500320020c6b300804f510020003a009d
:1019f0000a00370043c7b300834f51001d00320077
:101a0000e6c14100834f51001a00320010c7b300f5
:101a1000804f510016003a00060037001180e9009f
:101a2000800878001000780028649000084878004a
:101a30002e0037001180e90080087800100078003f
:101a400018129000cfa2de00612bb9000498be00ee
:101a50000690be002500370080087800100078004e
:101a600018119000cf91de000288be001f003700e1
:101a70001180e900800878001000780018149000a8
:101a800008087800190037001181e9008208780001
:101a900012027800cfa2de00612bb900049cbe00c8
:101aa0000694be00a8089000010545007a0498003d
:101ab0008040780008007800700307000b003700b2
:101ac0002808900009757800060037002808900063
:101ad000000545000904e00001003a0059c2b300c6
:101ae000094d78000000e800200c98000000eb0091
:101af0004f0578004f04be00000006002f04b00020
:101b0000889fbe008a9fbe008c9fbe008e1f7800fb
:101b10000007780081f79f003e04be002e05be003e
:101b20000e1090000000e00002003d006000200068
:101b3000001798008e00780020fb2f000f00400057
:101b400024030700e20f50000a003a003000200092
:101b5000400f9800b1c9b3000ff0970081404000da
:101b600020912000e1cf50000d003e00e0902000c9
:101b70000b0037000000e0000f00340030002000b0
:101b8000400f9800b1c9b3000ff1970081404100a8
:101b9000a0912000e1cf500001003e0060912000a4
:101ba000fe009000b0487800b068780010407800df
:101bb00090409800f30037000000e00005003a0074
:101bc00022fb2f000f014100001978008001eb007b
:101bd000e70037006022b8006033b8000800be009c
:101be0000a01be00f50b07000000e00001003d0007
:101bf0000bf0a200705927009f9897000088b90049
:101c0000026a280013002000500c070064065000f0
:101c10009c9f9f0013003b0063061600c0ff2f002f
:101c2000000666008c01ea00939f9f00ed91200062
:101c30000800be000a01be00070037000c08a30020
:101c4000030032003d02be002d03be00e20c07007f
:101c50000c86d100e88646000c00e000f7ff3c004f
:101c6000180037000c00e00018003200c0ff2f0001
:101c7000000666009c9f9f00ed9120006000b80068
:101c80000200200003ff2300070037000c08a30018
:101c9000030032003d02be002d03be00ce0c070043
:101ca0000c86d100e88646000c00e000f7ff3c00ff
:101cb0000002be000203be000800be000a01be0012
:101cc000c80b07000004be000205be008e10900085
:101cd00060c6b3000ff29700804f5200040032003c
:101ce0006000200062c4b300824f520002003a003c
:101cf0009f9a97006a80420081004000f1b79f00e0
:101d000001037800f30f5300020034003701200074
:101d1000f7b79f0000c3b300c0779f0056fb2f00aa
:101d20000f0343000e007800a0b79f00060778005d
:101d30003d0037000800be000a01be00760c070017
:101d40000006be007fb1970068015100f2b79f0006
:101d50004240a9000c0034009b0c07000002be00aa
:101d60000203be000800be000a01be00100d0700fd
:101d70006022b80046782d0077192400960c0700e1
:101d80000004be000205be00e80047008e002000ef
:101d90000802be000a03be00b4b79f00c5b79f008b
:101da000d6b79f00e7b79f000c01be000104780082
:101db0000c003700a400200005002000c0fd2f000b
:101dc0000f0040005b0207006fa89700ffa8970074
:101dd0000fb197009fb1970005c3b30005644100a0
:101de0000001be00e00f5100e08f590003003400f5
:101df0000e07e900e10f4700eeff3a008800780087
:101e00003fb49700cfb497005fb59700efb5970048
:101e10000200370000c3b300806078000e07e900bd
:101e2000fcff3b00688740007fb397000600e0009e
:101e3000070034006022b8006033b8000800be001c
:101e40000a01be00620b07000000e000b9ff3c0081
:101e50000e0378002fb7970051fb2f008f804000b2
:101e6000010353009f9b970067804300909f9f0052
:101e7000020037000603e9000000e90001017800d4
:101e80008200780003c3b300b1cf1100f9ff320024
:101e9000909f9f008e11900061c6b3000ff29700d3
:101ea000814f52000300320061c4b300814f5200e1
:101eb00002003a000000e8000a003700100020008d
:101ec00051c6b3008ff2970081cf52000500320057
:101ed0000540780050c4b2000080fb000000e9001b
:101ee0004f00de0083014000868f51000100340066
:101ef000860178000300e0001d00350000c3b30038
:101f0000868f510006003d0062c2790069404000a2
:101f100041c3b300814f520001003c0069405000b2
:101f20008300e9008100410001003700840178004e
:101f30000302e90001037800a142780080cf52003b
:101f4000faff320091c3b300814f500001003a0004
:101f5000054be8000400e00005003d000201e90037
:101f60008301e8001f9b97000603e800969f9f00ef
:101f70008ff397008700fb001f9a97000e007800f0
:101f8000060007004f0778004f06be004f05be0051
:101f90004f04be002f04b10000000600f087470088
:101fa000889fbe008a9fbe008c9fbe008e1f780057
:101fb00000047800814478000205be000406780021
:101fc0000b00e00002003c001b0020000aa42000df
:101fd00060c6b30080cf54000e00320060c4b3006e
:101fe00080cf54000b00320070c6b30080cf540085
:101ff0000300320070c4b30080cf540081003a0067
:10200000e40f46007f00350008109000800f560056
:102010007c003d000c06e80060c6b30080cf540091
:102020001000320060c4b30080cf54000d003200b5
:10203000381090000038a30004003a000810900007
:10204000808f550001003d000b149800081090008f
:102050000c0050000014980002003b000000eb0050
:102060000014980048089000f80090000c00e00070
:1020700026003c0002c3b300827078000000e80034
:10208000400c9800881090000100e00003003c0024
:10209000b81090000138a30005003200f80090004d
:1020a000e2c2b300827078000000e800400c9800a3
:1020b000081090008c00ea00810f500001003d00e4
:1020c0000006ea008c00ea00510c98000006460069
:1020d0000c1498008b0f5600010034000b0678009a
:1020e0006c0c9800f80090004808900000804000b8
:1020f0000c0178008a007800a30107000810900006
:102100000c0650007c0c9800900037008c8f550016
:1021100018003d00008040000b0178008a00780024
:10212000990107004808900000804500400c980085
:102130008b0556005b0c9800881090000100e000b1
:1021400003003c00b81090000138a30006003200e4
:10215000f8009000e2c2b300827078006808900036
:102160000000e800600c980008109000700c9800c7
:1021700076003700008040000c0178008a0078006b
:10218000810107004808900000004600400c9800bc
:102190008c855500881090000100e00003003c0091
:1021a000b81090000138a30005003200f80090003c
:1021b000e2c2b300827078000000e800400c980092
:1021c00008109000808f55000100340080057800d1
:1021d000f800900048089000008040008c00450006
:1021e0000b01780068010700480890000b004000d0
:1021f000400c9800081090008b0550005b0c980074
:102200005200370048089000f80090009a7078005b
:102210000000e800400c9800881090000100e000e9
:1022200003003c00b81090000138a3000500320004
:10223000f8009000e2c2b300827078000000e8006d
:10224000400c9800081090000000e00010003400de
:102250008b05e900808f550001003400800578006f
:10226000f800900048089000008040008a00e800d4
:102270000b01780044010700480890000b00400063
:10228000400c9800081090008b0550005b0c9800e3
:10229000f80090004808900000804000095878003d
:1022a0000007e8000c00e00004003500b1c2b300f4
:1022b000014878008e04780004003700d1c2b300d2
:1022c000014878008e0478000c06ea007d855700ee
:1022d0008006eb0009003700a20020008c00780087
:1022e00072805700080107007fb097008fb89700f1
:1022f000016d7800000678008d06e8000c00e00013
:10230000f5ff3c000d00e00009003a008e04780063
:1023100000c3b300805c7800050037008d06e9003b
:10232000fc80570061c07e0002c3b300825c4000a5
:102330000d00e000f9ff3c00f80090004808900014
:102340000080400080845400690c98003810900090
:1023500074006000f00f50000e003a00c8089000b2
:102360002808900000804000d8089000010040003c
:10237000e808900001004000f808900001004000cb
:10238000a8109000810f500002003d000080500016
:10239000300c98004f0778004f06be004f05be0076
:1023a0004f04be000f01b10000000600889fbe0070
:1023b000000478000203be0081047800080278005f
:1023c00089017800120020000600be0036030700d5
:1023d000890f5000010032000004eb000800780073
:1023e0004f04be00000006006800fa00889fbe008f
:1023f0008a9fbe008004780001047800820578007e
:10240000030578008400780000f92f000f004000d9
:1024100023030700d98f9f00fb8f9f000000eb0074
:10242000a09f9f00e88f9f009a84fb000904fb0097
:102430008904ea00cf4cde0050022000800f5400d7
:102440000d003200e18f54000b003a0009017800c2
:102450008a0078007f889700df89970003000100d9
:10246000f08f9f000000e000950032002f98970049
:102470000000e800a09f9f000905450050022000d1
:10248000800f5400040032000800e000e6ff3a002c
:102490002f9897008b0037000000eb00809f9f0073
:1024a000f0979f00e0979f00d0979f00c0979f00f4
:1024b000b0979f000700370061a220000100500084
:1024c00000004000a1a1200061007800cf98970093
:1024d00001007000c09f9f000a0478000805780082
:1024e000ba4478008900fb0060a22000ad0007001c
:1024f0000000e000f0ff3a00a1c2b30081cf540019
:102500000e003a008f8897000180e900808f9f00bd
:1025100010007800b09f9f000000e00005003d0023
:102520000000ea00b09f9f004f9897000020a00095
:10253000c09f9f000804e80010003700b09f9f0074
:10254000880078000000eb0005003700f3ff27004b
:10255000830f5000020032006a02b90004004100fb
:1025600001047800880078003101fb000203b1000b
:10257000e90f5100f5ff3600b09f9f00e0c2b300a5
:10258000984f1000020032000080eb001900370065
:10259000a0c2b300d84f100007003a008f88970000
:1025a0000180e900808f9f0010007800909f9f00bd
:1025b0000804e800100037000000eb00909f9f0027
:1025c0008800780005003700f3ff2700830f5000d4
:1025d000020032006a02b9000400410001047800e0
:1025e000880078003101fb000203b100e90f5100bf
:1025f000f5ff3600909f9f00984478008900fb000b
:1026000020a12000670007000000e0000200320067
:102610000804e800010037008044eb00a97f9f0018
:1026200080c6b30080cf540006003a0098cf140053
:1026300010003a0066405000a07f9f000804e800a8
:102640000c003700c0c6b30080cf540009003a0028
:1026500098cf140007003a0067404000d84f1000a0
:1026600002003a006e4050000100370010c7b3006e
:10267000a07f9f001801fb00c3fb2f008f8141004a
:1026800001f92f008f80400020f92f000f0040003b
:10269000c7fb07000000e00009003a00c1fb2f0063
:1026a0008f80400020f92f000f004000a20107009a
:1026b0000000e000020035000805e8005aff37007e
:1026c0000080eb004f05be004f04be000080fa0002
:1026d0000000060003027800820178000101780002
:1026e000611d210040ff37006900e1000400350052
:1026f0006d00e100030034000002b100010032006f
:102700000000050010000500800278000103780039
:10271000110009000203d80080017800830a7800c4
:102720000299b90002015300920298000500780056
:1027300000000600881f78008a9fbe008c9fbe00a4
:10274000000478000205be000406be000401be00bd
:102750000a00be007d090700008cbe000c01be000f
:10276000a80a07000005550081855d002a0498002d
:102770003b049800080078004f06be004f05be00dd
:102780004f04780000000600800178000200370046
:10279000b15978000201e9000200e000fcff3a00b4
:1027a00000000600020037000304e00006003200cb
:1027b0000001780002007800b041780081cf51001c
:1027c000f9ff3a00010037000001eb000200780039
:1027d00000000600889fbe0000047800e6844000e8
:1027e0001900d0004500de00f27f2000820f50006b
:1027f00010003a00000ceb00990478006f8164002f
:10280000200020001b003a00210190000200e0009f
:1028100018003a00110190000200e00015003a0093
:10282000100020001100e000120032002000200003
:10283000100037000000e00004003a0001007800ba
:10284000c00207000000e00008003c00f200280081
:102850001901610001fe2300810c710021c02f00cd
:10286000010c40000080eb0002003700000ceb0080
:102870000000eb004f04be0000000600fc8747008c
:10288000889fbe008a9fbe008c9fbe008e1f78006e
:102890000006780080c5b30080cf50000a003200e7
:1028a0007740400080cf50000a003200694040006d
:1028b00080cf50000b003200709e200080bf9f0030
:1028c000ae0020000a003700629d200082bf9f00fa
:1028d00006003700739e200083bf9f008e002000fb
:1028e00003003700749e200084bf9f000e0120006b
:1028f0003c02be002c03be000605be000404be0060
:1029000040c6b30080cf5000030032006540400055
:1029100080cf50000b003a00e00f5200e08f5a00c9
:10292000e00f5b00e08f5b0006003d006000b80038
:102930006011b80004045000858458000605590051
:1029400087855900e80f570004003200400020003e
:10295000f00f570038003a00010037003000200027
:10296000e00f5400e08f5c00e00f5d00e08f5d0041
:1029700004003a008c1090008d0120000100e0005e
:10298000060032008e00e900888060008fba970050
:10299000e5c07800f1ef9f007d0120008000780005
:1029a0008100e900050033008b05d1000a85d300c2
:1029b0008984d3000884d300f9ff3700089ebe0045
:1029c0000a96be00120037008d06e9008e00e9006d
:1029d000848060000fb99700e2c1780082fd2f006b
:1029e0000f01410003f17e00800078008100e900c2
:1029f000050033008783d1000683d3008582d3008e
:102a00000482d300f9ff3700049ebe000696be0084
:102a10003c02be002c03be00e00f5200e08f5a00c3
:102a2000e00f5b00e08f5b008b0034000d00e000e6
:102a3000e5ff3c00880037000c68900081c6b300b9
:102a4000814f50000b00320006003c000004e00003
:102a500008003200e6c05000814f50004e003a009e
:102a600004003700c1c6b300814f50004a003a004d
:102a7000210037000800e00004003a000c1090002c
:102a80008d0120000000e000060032001100090066
:102a90000e84d8000fb99700e2c07800f1ef9f00d4
:102aa0007d012000110009000e84d8000a003700c3
:102ab000110009000e04d8008d06e9000e81b9004e
:102ac000020454008fb8970061417c0081fd2f0003
:102ad0008f80400082f07e00000478000800e00053
:102ae000020032000d00e000f1ff3c00cfc4de0028
:102af000614db90025003700e00f5400e08f5c0005
:102b000004003a000c1090008d0120000000e0004d
:102b1000070032006171b9000800be00b609070065
:102b20008fb99700e3417800f3ef9f007d0120000b
:102b30006171b9000800be009f0907000b00370053
:102b40006171b9000800be00800807008d06e90029
:102b500000f1b900020454000fba9700e4427c006f
:102b600084fd2f000f02420005f27e000004be002b
:102b7000e00f5000e08f5800020032000d00e0002e
:102b8000efff3c004fcdde008a057800089ebe00b6
:102b90000a96be0030003700e00f5400e08f5c0062
:102ba000e00f5d00e08f5d0004003a000c10900023
:102bb0008d0120000000e000090032006172b900c0
:102bc000612bb9000800be000a01be00330a0700ed
:102bd0000fba970064427800f4ef9f007d01200057
:102be0006172b900612bb9000800be000a01be0085
:102bf000230a07000d0037006172b900612bb9008c
:102c00000800be000a01be00280a07008d06e90080
:102c100000f2b900040454008fba970065427c00aa
:102c200085fd2f008f82420084f27e00009ebe0050
:102c30000296be003c04be002c05be00e00f54000e
:102c4000e08f5c00e00f5d00e08f5d00020034006b
:102c50000d00e000e8ff3c00e80f570010003a00cc
:102c60003c1090000038a3000d003200f78f560092
:102c700006003e0085fd2f008f824200e5c07e00e9
:102c800000c3b30080cf5000050032008d06e9007c
:102c900002c3b30081fd2f008f80400082f07e00d0
:102ca00078811600420e98007c00900083fd2f0072
:102cb0008f8141008d804100b3fe07004c089000d9
:102cc0008c109000810f500006003d0000805000e5
:102cd000300e98003c1090000040a1003016980083
:102ce0000f0037000100e0000d003d00bc10900017
:102cf000f4806000f08f500009003a002c11900021
:102d0000ac089000810051003c0990008280500086
:102d1000008050004240a90001003400300e9800ad
:102d20004f0778004f06be004f05be004f04be009f
:102d3000cf01b100000006000400fa00889fbe0029
:102d40008a9fbe008c1f780000047800010678007e
:102d5000a81490002808900080845400380890003f
:102d600080845400480890008084540058089000e3
:102d70008084540068089000808454007808900093
:102d8000808454000002220090bf9f0000032300b3
:102d9000a0bf9f00381090000028a30015003a0043
:102da0000900e00013003400090578008a05780066
:102db000e20f5500010036002b002000c8019000f2
:102dc0000b017800ee8057006800900003000100be
:102dd000600498000000e000aa0032001810900083
:102de0000b004000101498000b0555004240a9004c
:102df000eeff3c00280990000200e0000c003400c7
:102e0000c80190008c007800680090000300010069
:102e1000600498008080eb000000e0009a0032001f
:102e2000981090002808900000804000101498002e
:102e3000380d90000a00e000110034008a05780087
:102e4000e20f5500010036002b002000c801900061
:102e50000b017800ec80570068009000030001002f
:102e6000600498000000e000860032001810900016
:102e70000b004000101498000b055500edff3700c3
:102e800008699000c808900050c6b300804f5100f8
:102e900008003a000100e0001500340058029000dc
:102ea0000809900098099000680090000400010053
:102eb000070037000100e0000d003400c801900059
:102ec00001017800f8009000680090000300010004
:102ed000600498008080eb000000e0006a0032008f
:102ee000981090004808900000804000101498004e
:102ef000580d90000a00e000110034008a057800a7
:102f0000e20f5500010036002b002000c8019000a0
:102f10000b017800ec80570068009000030001006e
:102f2000600498000000e000560032001810900085
:102f30000b004000101498000b055500edff370002
:102f4000086990006808900051c6b300814f510095
:102f50000d003a000000e0001c00340078019000f1
:102f6000c8089000010141006111b800828fd200b1
:102f70008381d200580290008000780068009000a1
:102f800004000100090037000000e0000f003400d9
:102f900078019000c808900081004100c8019000ad
:102fa00000017800680090000300010060049800b0
:102fb0008080eb000000e0003300320098109000a9
:102fc000680890000080400010149800780d900070
:102fd0000a00e000110034008a057800e20f550075
:102fe000010036002b002000c80190000b01780082
:102ff000ec80570068009000030001006004980016
:103000000000e0001f003200181090000b0040008c
:10301000101498000b055500edff37003810900094
:103020008000eb000028a300170032000900e00038
:103030001500340009057800e28f540001003600c5
:103040002a002000c80190000a017800ee80570095
:103050006800900003000100600498000000e00098
:1030600008003200181090000a0040001014980068
:103070008a8454004240a900eeff3c008000eb002f
:10308000010037008080eb00010078004f067800d7
:103090004f05be004f04be000080fa00000006008d
:1030a0000108780000000600e6874700889fbe0000
:1030b0008a9fbe008c9fbe008e1f780082bf9f003b
:1030c00004047800029ab900f4b79f000400e000fd
:1030d000590032000fb997000200e000570032009b
:1030e0000006be0004077800c80090006800900049
:1030f000808f500004003900080078007901070033
:103100000000e0003b003500004020001800600097
:103110000a0032008e017800a20020000c00be00e0
:103120008b0607000005be00008075000700320016
:103130008c0455008904e800050037008e047800ef
:103140000a0020000b002000010037008e047800e8
:10315000480190006800900002005000890f500064
:1031600003003100800478000a0020000b002000da
:103170006111b800828fd2008381d20009027800e9
:103180000c00be00550607000907570048009000d4
:1031900009004000400498000a85750004003200d0
:1031a000080078002c0007000000e00011003a0041
:1031b0000e00e0000f0032006148b800808fd2009e
:1031c0008180d2000000780000f0a1008c01d000c6
:1031d0000001d000028641004220a80081864e00f6
:1031e0004200a9004220ae004200a8000c86d30095
:1031f000bdff370000802000180060000200320090
:10320000080078001400070000c0200018006000cb
:1032100002003200c8019000630498007fb097005c
:103220000e0750000fb99700110009000287d8005f
:1032300080017800010037008001eb000300780076
:103240004f0778004f06be004f05be004f04be007a
:103250006f00b10000000600889fbe0000047800e7
:103260000800e0000f003a008004eb000904780039
:103270008800d000e08f2000610078000000e000ae
:1032800004003200f4ff07000000e00001003d00f0
:103290008084eb000804e800e80f5400f4ff3a00d3
:1032a0002500370000002200180060008004eb00b9
:1032b00021003200a80490000f00370009015100de
:1032c000384090000000fb0089007800bef4070041
:1032d0000000e00007003c00280090004004980037
:1032e00060049800500c98001890a0008084eb00b7
:1032f000110037008084440048019000828f540000
:10330000eeff3900280090004004980098007800f3
:1033100002c020000281600001003a0038009000e5
:1033200001e8a300020032006004980001003700a9
:10333000500c98008004eb00090078004f04be0098
:1033400000000600e600400011017800050028009a
:10335000850261006f01610082087800020032007e
:103360001200200011003700a00190001200200080
:103370000300e0000d003a00900190000300e0001f
:103380000a003a001000e00008003a00360037005a
:10339000640340009608780080017800530b7800a1
:1033a000900978000408780070015100110278003b
:1033b0000400e000f6ff3200130037006402400012
:1033c000140378004f33de008381410083087300cb
:1033d00080017800d3037800cf3bde00140378002f
:1033e00006034300068a73001302780004024200b9
:1033f000100378004f33de008609720090017800d8
:10340000038841000201e90091017800ef8f51002b
:10341000eaff36001000370080017800530378007f
:103420004f33dd001002d100040873006402400035
:1034300094037800cf3bdd001303d100868973002d
:10344000110378004f33dd009401d100030a7300ab
:103450009108d1000201e80091017800ff8f51002e
:10346000edff3e00ef886100918872000200780055
:1034700000000600881f7800000478000040eb0080
:1034800000549800380090001040780091c6b300b6
:10349000814f5000220032000e003c00eec0500070
:1034a000814f50008800320005003c0051c2b3003b
:1034b000814f50006900320081c5b300130037000e
:1034c00031c6b300814f5000130032008140e80044
:1034d0000e00370001c7b300814f500007003c00c9
:1034e0008140e900814f50000d003d008140e9001e
:1034f000814f500078003a000c00370051c7b300ec
:10350000814f500006003200e3c04000814f500060
:1035100071003a00020037008000eb006b003700ba
:1035200008007800b60007006c003700e8489000fb
:10353000100020000104e00068003a00f848900004
:10354000c3c6b3002801900083cf5000340032007e
:103550000a003c00e4c1510083cf50002a00320031
:10356000a0c6b30080cf50001a003200684050005f
:1035700080cf500031003a000a00370043c7b30043
:1035800083cf500020003200a0c7b30080cf50008e
:10359000190032006940500080cf500027003a00e7
:1035a00007003700280090000080e9002004980000
:1035b00010007800084c900008487800250037007b
:1035c000280090000080e900200498001000780096
:1035d000030037000281e9002204980012007800fd
:1035e00048029000cfa2de00612bb9000498be0013
:1035f0000690be00170037000281e90022049800ff
:1036000012007800110037000281e90022049800be
:103610009200780048049000880878002f00370056
:103620000281e9002204980092007800480190008d
:10363000cf91de008288be0028003700280090006d
:103640000080e900200498001000780048049000f1
:103650000808780010002000200037004800900083
:103660000000e80040049800980178001200200053
:103670008000eb001800900003000100800078003b
:103680001000200052022000828f500013003200f0
:1036900048009000e18f4000070032000000e90080
:1036a00040049800980178000001eb001800900099
:1036b00003000100080037000000e9004004980002
:1036c00001007800050037008080eb0008007800da
:1036d000c6010700010037000000eb004f0478002e
:1036e00000000600889fbe008a1f78000004780052
:1036f000c8009000680190000000eb00828f50002d
:103700003c00390018007800220029000201600006
:10371000e20f510007003200012020000000e0000d
:103720000100350001202400008c70000080eb00b7
:10373000300037000200260002006000820f5000b7
:1037400009003a0038009000808f500006003900d0
:1037500008007800c0fe0700800078000080eb00c1
:103760000100e00023003a001805780000c02000a6
:103770000000650018003a00a804900060022000d4
:1037800008004000808f540013003a000020200001
:103790008e040700200498000000e00005003a00b5
:1037a00029049800490498008904e8003904980025
:1037b000080037000a60a0000a0c78004004980056
:1037c000012020008080400031049800400c9800c7
:1037d000500c9800ab03070028009000500498009c
:1037e000380090006004980000002600180c70005b
:1037f0000000eb004f0578004f04be0000000600fb
:103800002f02b000889fbe008a9fbe008c1f7800e8
:103810008e1f780000047800680090000000e0002f
:1038200001003c00f0ff27000000e9005004980070
:10383000480090000000e8004004980098017800db
:10384000120020008000eb0018009000030001002f
:1038500000057800b0022000800f55000300320000
:103860000080e800800f550015003a00cad79f007d
:10387000d80090008100e9005104980048009000b1
:10388000090033000000e800400498009801780027
:10389000120020008000eb001800900003000100df
:1038a00000057800030037000000e800400498009d
:1038b0000085eb005efd2f000f0747000200370078
:1038c0004efd2f000f074700380090009000fb00ce
:1038d000709b2000b3fb0700719b2000010050008b
:1038e000019b2000e14578008b05fb0000032000d0
:1038f000800f550033003a00d80090008100e900a5
:1039000051049800480090000c0033000000e800cb
:103910004004980098017800120020008000eb001d
:1039200018009000030001000005780080072000c7
:10393000800f550008003200040037000000e80046
:10394000400498000085eb001b0037008005200034
:10395000800f550018003a000b00e0000200320012
:10396000f08f550002013a00d80090008100e90074
:103970005104980048009000090033000000e8005e
:103980004004980098017800120020008000eb00ad
:1039900018009000030001000005780003003700c4
:1039a0000000e800400498000085eb000b012000b7
:1039b0000046eb000d0037000b00e000e90032008c
:1039c000eb0037000046eb00a90020000b00e000f0
:1039d0001a003200ea8f550002003200e88f5500cd
:1039e00002003a008b0478001400370069012000bf
:1039f00012003700d80090008100e90051049800bf
:103a000048009000090033000000e80040049800de
:103a100098017800120020008000eb001800900050
:103a20000300010000057800030037000000e800f3
:103a3000400498000085eb001cc0b3000003200088
:103a4000800f5500ebff32000c04e000180032003c
:103a5000005f7800160037006d805700800f570018
:103a6000010031000a5f7800d80090008100e90071
:103a70005104980048009000090033000000e8005d
:103a80004004980098017800120020008000eb00ac
:103a900018009000030001000005780003003700c3
:103aa0000000e800400498000085eb001cc0b30053
:103ab000e10f45000f003200090178008a0078000c
:103ac000f09b2000eb0307000000e000e2ff3a005b
:103ad000480090000000e900400498009801780038
:103ae0000001eb008a00780018009000030001003c
:103af00003003700480090000000e90040049800ef
:103b00000c04e00008003a008004eb0040fd2f00a8
:103b10000f004000800f57008b003a00e10f450076
:103b200089003a0087003700004feb00684890009a
:103b3000190020000004e00083003a0038009000e3
:103b40001040780041c6b300814f5000030032009e
:103b5000e5c04000814f500035003a000b0178006d
:103b60008000eb0040fd2f000f0040009601070091
:103b700014c0b30004549800784a9000c6c6b3003d
:103b8000a8029000864f5200240032000a003c0038
:103b900064435300864f52001c00320006c3e80005
:103ba000864f52001200320068435300864f520085
:103bb0005e003a000a00370046c7b300864f520045
:103bc0001200320066434300864f52000f0032005d
:103bd00069435300864f520054003a0004003700f6
:103be0008582e90025049800150278003800370026
:103bf0008582e9002504980015027800009abe002d
:103c00000292be00190020004f0037008582e900b3
:103c10002504980015027800480037008582e900e5
:103c20002504980015027800008abe00f5ff3700d1
:103c30000b0178008000eb0040fd2f000f004000da
:103c4000b90107000954980038039000a8029000b9
:103c500004c7b300964f12002a003200784a900041
:103c6000c6c6b300864f52002b0032000a003c004b
:103c700064435300864f52002200320006c3e8001e
:103c8000864f52001900320025c6b300854f5200fe
:103c900026003a000a00370046c7b300864f52009c
:103ca0001800320066434300864f52001500320070
:103cb00015c7b300854f52001c003a0006003700bc
:103cc000280290000482e90024049800140278007d
:103cd000004a7800cbff3700280290000482e900f8
:103ce0002404980014027800c4ff37008582e9009c
:103cf0002504980015027800009abe000292be00ca
:103d0000110037008582e90025049800150278002b
:103d1000000a78000c0037008582e900250498002d
:103d200015027800008abe000700370028029000c4
:103d30000482e9002404980014027800000a780044
:103d4000b0ff37008a047800090078004f07780038
:103d50004f0678004f05be004f04be002f02b10091
:103d6000000006008b0020001cc0b3001dff3700c0
:103d70001cc0b30017ff3700110037008001780026
:103d800010427800d5c2b300d3cf120008003a0029
:103d9000814f520003003e00a041900083cf5000ad
:103da00010003600e30140006301510003003700ba
:103db000814f52000b0032000201e900030078003d
:103dc000e20f5100edff3e0003003700b0cf1000be
:103dd000050032000201e9000200e000fbff3a00aa
:103de000000005001000050010000500f0874700e6
:103df000889fbe008a9fbe008c9fbe008e1f7800e9
:103e00000004be00f84d90000046eb000900e00001
:103e100025003d00380090000000e80030049800c4
:103e200090407800ccef9f00e2c5b30082cf5000f5
:103e300003003a000000e80030049800c1ef9f0042
:103e4000b8069000d0c5b3009d4f100002003a00a4
:103e50000d00e800010037000d007800d1052000ba
:103e600050fa0700c0b79f000000eb00cfb09700ea
:103e70000100e000ca0032000d8550000046eb0052
:103e8000e20f5500080034000a81e9000d00e80047
:103e9000d1022000f70207001cc0b3000000e000c0
:103ea00001003a000046eb00680090000000e000ce
:103eb00004003c00100020000900e0000100320076
:103ec000f0ff2700cbc6b2008b85fb008b05e90015
:103ed000cf5dde0050049800684890000004e000c8
:103ee0000c003a00280090000b00e00005003200b2
:103ef0000080e9002004980010007800b0b79f000f
:103f0000040037000080e9002004980010007800c9
:103f1000d0b79f000047eb00fbb79f0089057800f2
:103f2000660037000b00e000030034000d0078004d
:103f3000edf907001f0037000b00e0001f00320002
:103f40000c04e0000d003a004fe997000204e00085
:103f500005003a000a0178008d00780038009000d2
:103f6000c40207000c0037000a0178008d007800b9
:103f700038009000bf0207000e0037004fe897009e
:103f80000004e00007003a000a0178008d00780084
:103f90003800900078ff07000000e00007003a00ba
:103fa0005d0037000a0178008d007800380090002d
:103fb00071ff07000000e00057003a00ffb09700d3
:103fc0000100e00009003a00684890000004e000a9
:103fd00039003a005fb197000d597800d2b79f00c1
:103fe00010c0b3000054980033003700cde79f00a5
:103ff0008d06fb008d04780009f0a7008904ea0013
:104000008904ea00cf4cde0005003a000d00e00014
:1040100003003a007c8057008ff307008004e8001b
:104020007b8257001e0020008b0278008a057800f2
:104030000905780084047800100037000e07e900b5
:10404000c900fb0048009000e18f400009003200e9
:104050000000e90040049800980178000001eb009e
:104060001800900085bf9f00030001008fba9700e1
:10407000020037000000e900400498008e0f550050
:10408000eeff35000b057800850578006848900044
:104090000004e00005003a003fb097000d187800da
:1040a000b0b79f0010c0b3000054980068009000a3
:1040b0000000e900600498002ec0b300d800900012
:1040c0008100e90051049800480090000d00330081
:1040d0000000e800400498009801780012002000d9
:1040e0008000eb00180090000300010080067800bb
:1040f000e18f46008bff3a008b047800ffb59700f4
:104100002d0037008b047800ffb597000000e80011
:1041100040049800280037008b047800ffb5970012
:10412000480090000000e9004004980098017800e1
:104130000001eb008d0078001800900003000100e2
:104140000900e00002003200e24f57000500320093
:104150000080eb000e04e00011003200100020008f
:104160000f003700684890000004e00007003a00a4
:104170000b00e00003003200bfb097008008eb00a6
:10418000020037005fb197000b4978001000200053
:104190000900e00002003d00cfb097003104980014
:1041a0004f0778004f06be004f05be004f04be000b
:1041b0000f01b10000000600480090000000e90077
:1041c00040049800deff3700e4874700889fbe0068
:1041d0008a9fbe008c1f78008e1f78000005780033
:1041e00001077800020678000e00e00001003a00a6
:1041f0006e8757008a0578008b047800890578005f
:104200003b4478000800fb0037f907000000e0009d
:10421000f9ff3a00d0c2b300804f540003003200cf
:1042200000c0e900804f540002003a008904e80011
:1042300001003700004478000c0178008e007800ff
:1042400009007800380007009e8f540001003a00f2
:104250000a0f78009e0f550005003a00e00f50004d
:10426000e08f5800e00f5900e08f590014003a0029
:10427000b4c2b300844f540006003a00e00f50006f
:10428000e08f5800e00f5900e08f590020003d00fa
:104290000b003700d4c2b300844f54001c003a0016
:1042a0006022b80006002000070028000400e1009a
:1042b0000588e1000690e1000798e100090036005a
:1042c00020022000c05188006b404000804f540005
:1042d0000b003a006000b800020020000300280034
:1042e0000b0037006022b8006033b80000005200b5
:1042f00081805a0002015b0083815b00040037006b
:10430000f0ff2f00f1ff2f00f2ff2f00f3ff270037
:104310004f0778004f0678004f05be004f04be00df
:104320004f00b100000006000f02b000889fbe00e1
:104330008a9fbe008c9fbe008e1f780080b79f00b2
:1043400001077800820678000004780008067800eb
:104350000c04780038407800e0e79f008040780047
:104360000100fb00e0f807000000e000f7ff3a0062
:10437000d0c2b3006fe19700804f510003003200bc
:1043800000c0e900804f510002003a000c06e8002e
:1043900001003700e0e79f000d00e0000500350058
:1043a000e18f56000300320040022000808f56004b
:1043b000070034006044b8006055b8000e00e0000b
:1043c000990032000fb29700040f78005d003700ab
:1043d0000d00e0000e003200f08f56001a003a0087
:1043e00000c3b3009c4f100017003a001c4090001f
:1043f00081c7b300814f50000300320081c5b30074
:10440000814f500010003a000c86e8000e00370083
:10441000ad00200000c3b3009c4f10000a003a001a
:104420001c40900081c7b300814f5000040032004f
:104430008d00200081c5b300814f500002003a007a
:104440000c86e8000d0120000c0078008000780048
:104450000100780002c3b300b04f1100fbff32002f
:10446000e1af9f008102780095b79f006044b800db
:104470006055b8008cbf9f001c003700619620007b
:1044800081405000e1df9f00616ab900612bb900f3
:104490000800be000a01be0062040700efda9700c0
:1044a0000502fb00cfa2de00612bb900c4b79f005c
:1044b000d5b79f00e6b79f00f7b79f00a8af9f0052
:1044c000b9af9f00caaf9f00dbaf9f004fb297000c
:1044d000dfb297006fb39700ffb39700000442006c
:1044e00081844a0002054b0083854b009fb29700f0
:1044f000a5b79f00050378003600fb0096b79f0024
:10450000510007000d0178008000780060962000bf
:10451000580107000000e000d8ff3a000fbe9700e6
:10452000afb39700870f560009003a006044b80007
:104530006055b8000e00e0003b0032000fb6970057
:104540000c0f78006044b8006055b80036003700a2
:104550002fb097006fa9970082005000b0982000fc
:1045600060c07e000000fb0000805000200033008f
:1045700019003a006fda97000400fb00cf80de00dc
:104580006109b9000000540081805c0002015d00f7
:1045900083815d000040e10001c8e10002d0e1003c
:1045a00003d8e1000c003900616ab900612bb90041
:1045b000b30307002faa9700bfaa97004fab97003d
:1045c000dfab97000400e1000588e1000690e10000
:1045d0000798e1000600320020022000c051880048
:1045e000f8ff2f00f9ff2f000805be000a00370072
:1045f000d0c2b300efe2970080cf520006003a002d
:104600006000b8006011b8000804500089845800a8
:104610000a0559008b8559000e00e00002003200a7
:104620002fb39700060f78000800be000a01be00f5
:104630004f0778004f06be004f05be004f04be0076
:104640000f02b10000000600800078001104b100e4
:10465000030035009101b10001003c000050a000b2
:1046600000000600d05180000000e0000100320090
:104670000000010080a3200000000600403e220050
:1046800061003700881f780028a420001804e0008b
:1046900003003a00f9ff070020c0b300004c780087
:1046a0004f04780000000600889fbe0000047800d8
:1046b00008007800e8fa0700800478000004200071
:1046c0001800600002003200280090005a00070025
:1046d0000000eb0020049800384090000004e00047
:1046e000050035000000fb00aeef07000000e00011
:1046f000010032008084eb00181090000000e00000
:1047000008003200f2ef07000000e0000100320074
:104710008084eb0018109000470007000000eb00b9
:1047200010149800000820001800600015003200e6
:104730000001eb006000b800e38f20000202d0000f
:1047400063027a00880f520005003a000000400022
:1047500081804800008041000008eb00060037001f
:1047600061004000e08048000201e800e80f5000ce
:10477000e08f5800f0ff3a00080078002e00070094
:104780000e003700000c780000c0eb0030449800a9
:1047900060022000080040002004980040049800b7
:1047a00050049800400c980060049800500c980049
:1047b0007004980076004400000c9800090078000e
:1047c0004f04be0000000600881f78000004eb00c4
:1047d0006140b800e2ff2f00f3ff2f0089020700bd
:1047e000c2902000620078000000e000010032006a
:1047f000adff07000804e800e80f5400f4ff3a009a
:104800004f04780000000600010020000100e000d5
:1048100008003200010080000100e00005003200c5
:104820008100e900010088008100d00002008000c2
:1048300000b17800000006000000e0002f00320008
:10484000c0017800e38f51002c0036000308a3005c
:104850002a003a00f15180000100e000020032001d
:10486000810f50000400310011009800f0518800c1
:104870001600370082007800110190000200e0006d
:1048800002003200800f5100faff39001102780057
:1048900084824000850f500018003900808f52003c
:1048a00003003a0083084200010078000700370047
:1048b0000200e0000300320083014000830f51003a
:1048c0000e003900120098009000980090009000af
:1048d0000100e0000900320010014000828f50000a
:1048e00006003a00c2a320000009eb001001780086
:1048f000110841009100900011009800000006008e
:10490000889fbe0000047800e15180000100e000b3
:1049100002003200010078000d003700f1518000e4
:10492000e0a3200004003700910f5400250036005a
:104930000180e800910090000100e000faff3a00d9
:1049400010003700920f54001e0036000280e8006d
:10495000100178000200e000faff3a00110178002f
:10496000f1518000e0a3200004003700910f5400b3
:10497000140036000180e80091009000828f500002
:10498000faff3a0029528000888f5400010031005c
:104990008804780009007800400007000000e0006b
:1049a00004003a00888f5400050032008904d100c9
:1049b000f5ff3700091878009fff0700d2ff370086
:1049c0000000eb004f04be0000000600881f7800c6
:1049d000630440000800a1008000eb00800f540039
:1049e00021003600e30f540001003e004800200083
:1049f00008007800c2ff07008000eb000000e00024
:104a00001900320090007800910178006481510013
:104a1000880f510003003100110190000208780056
:104a200007003700088140000208780091019000db
:104a3000130198001001780011091400880878000b
:104a4000100178000000eb000200e00004003200da
:104a5000920190000300e000010032000280e800b3
:104a6000e05188008180e800010078004f04780060
:104a70000000060003003700b0cf10000500320030
:104a80000201e900800178000200e000faff3a002c
:104a90000000050003007800000006008000780098
:104aa0000000eb000100e000050034000100780088
:104ab00010ef0700e10f400001003a000000eb009a
:104ac0000000060000c0da000000060000c0da00a6
:104ad0000000060000c0da00000006003400f80004
:104ae0000203be00820270008502720002f0a6007e
:104af00000f0a6008100e800a10188001500b200c6
:104b000008003200105978000402e9000d0032005c
:104b100061004000fbff39003420ec000000280059
:104b2000f8ff3700101978000482e9000500320010
:104b300062004000fbff39003420ec000000280038
:104b4000f8ff37003400f9000601be00000006003f
:104b50000300e00007003200a5018000a1018800e9
:104b600010427800a50188000402fb00820f520069
:104b7000110032008301e900a5018000a101880035
:104b800010427800a50188000404e000080032000b
:104b9000000278001000b00000026a004260af001e
:104ba00000f0a0000482d2000180b000e8ff3700ce
:104bb0000000200001002000000006008f1fd1002f
:104bc0003f0307008f87e9000000e00000000600b7
:104bd000809feb003a0307008f87e9000000e000a8
:104be000000006002800fa00889fbe008a9fbe00d1
:104bf0008c9fbe0003866b008f0007006400e100fd
:104c0000440032006408e1004a0032006100e10023
:104c1000460032006108e10049003200ec0647001e
:104c20006000b8003d02be003d03be00f4865700a0
:104c30006011b8003d04be003d05be007d032000ac
:104c40000b0037000000a0008d06e90013003200c1
:104c50000402420085824a0006034b0087834b0012
:104c60000000400081804800020149008381490022
:104c70000802520089825a000a035b008b835b00a2
:104c8000f0ff3b000802420089824a000a034b0001
:104c90008b834b008d06e900edff3a0084827200a1
:104ca00086827200f707b20087827200010032002c
:104cb000150020001e0490003e0b900006035400d7
:104cc000e63fb0000368a300070032000000a70021
:104cd0000500a0008301d1000281d3008180d300b0
:104ce0000080d3000603e8008301d1000281d300d5
:104cf0008180d3000080d3000002eb000482d20048
:104d00002100070003f0a1000cf0a70003f0a000b1
:104d10005d003700640247006408e100570032007c
:104d20003400be003401be00f6ff37006108e10028
:104d3000520032006011b8006000b800f1ff370087
:104d400003ff270002002000fbff3700839f68005d
:104d50000100e00002003d0060001000e08018004b
:104d60000300e00002003d0060011100e081190035
:104d7000110107004f00e00002003b00600010003e
:104d8000e0801800000006001800200057002000f6
:104d9000080453000d003d000600200097fc2f0082
:104da0000740e1001e00340084827200610260004e
:104db0008301d1000281d3008180d3000080d30021
:104dc0000804e800f8ff3a00470020006104600092
:104dd00005047400040464000d003200610040000a
:104de000e080480060014900e081490003b8a50067
:104df000070032000603e8006538e10004003a00cd
:104e00008301d1000281d3008180d3000080d300d0
:104e1000f87f20000830e100030035000803780027
:104e20006000b8006011b8004433dd00f300b20048
:104e30008301730000000600680447000294be006e
:104e40000094be00fc0447008694be008494be001b
:104e500009007800e302070008007800e10207007b
:104e600099007800814f70000b003b000800be00e5
:104e7000bc0207004f00b10003003700f3ff27001a
:104e8000f2ff2f006110b9004f06be004f05be00b3
:104e90004f04be000080fa00000006008103780085
:104ea0003def07000001be006000b8000478a300d9
:104eb00013003a006220e10015003e000d003900a9
:104ec0008301d1000281d3008180d3008301d1000e
:104ed0000281d3008180d3008301d1000281d300fd
:104ee0008180d3000538b000c42add00f300b20091
:104ef0008381720007f0a70003f0a0000000060005
:104f0000f3ff2700f2ff2f006110b900fbff37000d
:104f100003ff2700f7ff37001400fa00889fbe0048
:104f20008a9fbe008c9fbe000004be000205be002a
:104f3000680047000a90be000890be00a902070062
:104f40000070a7000bf0a100304320009e029000eb
:104f500080825200b0fe2f000028e10011003d00c9
:104f6000b0fc2f000028e100150034001e0990005d
:104f70008e0890007e0090000501b0000201d10073
:104f80008180d3000080d3008502e800fbff3a0057
:104f90000b00e000bcff3b0060001000e080180048
:104fa000b9ff3700f0ff2f00f1ff27000b00e000f2
:104fb000b5ff3b000100280000002000b2ff3700d1
:104fc0006000b800b0ff37004f89de008201780032
:104fd000ab023700000000002800fa00889fbe00e6
:104fe0008a9fbe008c9fbe0003866b0092ff070065
:104ff0000028a30064003a000128a30067003a00db
:105000000008a30062003a000108a30065003a000e
:105010001e009000be08900081064000ed3fb100e8
:10502000f4805700ee019000111ab8008e0990002c
:10503000311bb8009e099000311cb800511db8000a
:10504000f485570046000700fe0190003a00070073
:105050008b85e8003e0007008e09900040000700a5
:10506000ee019000340007008b85e800380007004f
:105070008e099000400007009e0990001b18b800a0
:10508000890440000a854800fe01900034000700b2
:105090008b85e80038000700ee0190003000070023
:1050a0008e0990001b18b800890440000a8548004a
:1050b0000a98a30008003a000402420085824a00d0
:1050c00006034b0087834b0008044c0089844c0086
:1050d0000a054d008d06e900848272008502730086
:1050e0004c3add00850272000100320015002000fc
:1050f000443ade001400b2004538de00cb45dd0046
:105100000b007000c540de00cb4ddd008b807000d1
:105110004549de00cb55dd000b017100c551de00b5
:105120000d03780018ff070003f0a1000cf0a700a2
:1051300003f0a00054ff37001b18b80085024000a0
:1051400006834800e0834b0060044c0007003700f2
:105150001b18b8000603400087834800faff370099
:105160001b18b8008703400008844800e0844c0006
:1051700060054d00000006001b18b8000804400040
:1051800089844800faff37000108a3003bff3a007a
:105190005800be005801be00e3ff37000008a3001e
:1051a00036ff3a0009047800f9ff370000000000dc
:1051b00007f0a200440137006022b8000602200078
:1051c0000000d0008180d2000482d2008582d2000b
:1051d0000000a0000202520083825a000300310046
:1051e0000202420083824a000000a1000603e90097
:1051f000f3ff3a0000000600efff07000400be00c6
:1052000000000600020ab900001bb9000200b80045
:10521000810042008100430000000600889fbe001c
:105220008a9fbe0030044200b0844a0030054b0023
:1052300090854b006000b1000898be000a90be0047
:105240000440e10005c8e10006d0e10007d8e10014
:1052500002003100680040001008e8004f05be0061
:105260004f04be0000000600889fbe008a9fbe005b
:105270003004be002005be000418540005985c00f0
:1052800006185d0007985d00110020000440e10051
:1052900005c8e10006d0e10007d8e10001003900af
:1052a0008000eb00108810004f05be004f04be00c8
:1052b000000006001200fa00889fbe008a9fbe0010
:1052c0008c9fbe00e0b79f00f1b79f0082bf9f0098
:1052d00093bf9f000605be000404be000000eb0063
:1052e000d0b79f00c0b79f00b0b79f00a0b79f0086
:1052f00090b79f00000678005fb19700cfb097008d
:10530000820141003fb097000200e00004003d0030
:10531000370007007e805700c0ff070003003700fa
:10532000330007007e805700cfff0700dfb69700ed
:105330000d00e0000c0035006fb29700ffb297003f
:105340000fbb97009fbb97001000200001002000ba
:105350006011b800000272008182720002037300c3
:10536000838373001b0007000c06e8000104200083
:10537000810f5600e0ff3a000d00e00004003d0000
:105380000802be000a03be007e805700a3ff07008c
:105390005fa897000000e00005003a001fb29700e8
:1053a000afb297003fb39700cfb397000900070053
:1053b0006fb09700ffb097000fb997009fb99700a3
:1053c0004f06be004f05be004f04be000080fa002d
:1053d000000006000100070000000600a4b79f00bf
:1053e000b5b79f00c6b79f00d7b79f000000060063
:1053f0004f09de0082817100b3b79f004f01de00cc
:105400008180400082807000a1b79f008fb097001c
:105410004f09de00000040000200700090b79f00be
:105420007fa897004f01de008180400082807000dd
:1054300081b79f000d0007004f3ade0000004000da
:1054400004007000f0af9f00080007000402420053
:1054500085824a0006034b0087834b00dfff07006d
:105460000802be000a03be00000006002fb297002b
:10547000bfb297004fb39700dfb39700000006005c
:10548000881f780018002000881f780089ff070017
:105490008f87e9004f04780000000600801feb00b2
:1054a00084ff07008f87e90000000600889fbe0088
:1054b0008a9fbe00e00f5000e08f5800e00f5900b7
:1054c000e08f59000c003d006044b8006055b80002
:1054d0000000540081805c0002015d0083815d005a
:1054e000180020001500070008003d001800070004
:1054f0000004eb00050037000004eb000f0007007c
:1055000002003d001200070018002000dcff070029
:105510000800e000060032006022b8006033b800e6
:105520000000520081805a0002015b0083815b0011
:105530004f05be004f04be0000000600e00f520001
:10554000e08f5a00e00f5b00e08f5b000000060078
:105550006044b8006055b8000402540085825c00c5
:1055600006035d0087835d0000000600889fbe0083
:105570008a9fbe008c1f7800e00f5000e08f58001b
:10558000e00f5900e08f59000d003d006044b80065
:105590006055b8000000540081805c0002015d008d
:1055a00083815d001c0020000820e10009a8e100c3
:1055b0000ab0e1000bb8e1000d003d000800370023
:1055c0000006eb00e00f5200e08f5a00e00f5b0096
:1055d000e08f5b0006003d006044b8006055b800f5
:1055e0000402540085825c0006035d0087835d0031
:1055f000aaff07000c00e000060032006022b8009d
:105600006033b8000000520081805a0002015b0044
:1056100083815b004f0678004f05be004f04be003b
:1056200000000600889fbe008a9fbe008c1f780085
:105630000006eb00e00f5000e08f5800e00f59002b
:10564000e08f590007003d006044b8006055b80085
:105650000000540081805c0002015d0083815d00d8
:105660001c002000e00f5200e08f5a00e00f5b00aa
:10567000e08f5b0007003d006044b8006055b80053
:105680000402540085825c0006035d0087835d0090
:105690000c00a200350107000c00e00006003200fb
:1056a0006022b8006033b8000000520081805a00c8
:1056b00002015b0083815b004f0678004f05be004e
:1056c0004f04be00000006002800fa00889fbe00bc
:1056d0008a9fbe008c9fbe000706780087866900ff
:1056e0000c003b00030478008704780008f0a10058
:1056f00009f0a100840f5000858f5800860f5900d3
:10570000890f5c00030033000cf0a20001003a0096
:105710000cf0a100c8fd07006400e1005f0032004a
:10572000780147006408e100610032006c01470025
:10573000748557003200be001201be003a04be005c
:105740001a05be001e039000be0a90008503530098
:1057500006003d000004fd008104fd000205fd007f
